:03000000020006F5
:03005F0002000399
:030003000200D91F
:2000620075B1677E007F01EE24FFFCEF34FFFD8C068D07EC4D70F0E5B130E7FB75B288228F
:20008200759850758920758DDCD28E438E10438780D29943A4012275FFDE75FFAD1200621E
:2000A20012008243E10443E34022AF8210990280FB8F992210980280FB8599821200AC8551
:2000C2009982222098057582FF800BC2988599821200AC859982221200997582201200ACA9
:2000E20012011E746BC0E07407C0E07480C0E01201501581158115811200B6120122749772
:20010200C0E07407C0E07480C0E01201501581158115811200B612012780C82243A70322EE
:0A012200D2B0C2B122C2B0D2B122A5
:20076B0050726573732061206B657920666F722074686520666972737420736574206F6606
:20078B00206F757470757473200D0A0050726573732061206B657920666F722074686520F4
:1907AB007365636F6E6420736574206F66206F757470757473200D0A00DD
:06003500E478FFF6D8FD9F
:200013007900E94400601B7A009007CF780175AF00E493F2A308B8000205AFD9F4DAF2759F
:02003300AFFF1D
:20003B007800E84400600A790175AF00E4F309D8FC7800E84400600C7900900001E4F0A3B4
:04005B00D8FCD9FAFA
:20012C00C0098581091200ACD0092285823185833285F033E4F52EF52FF530850834900166
:20014C002C020227C009858109E50924FBFF8F34E4F52EF52FF530E50924FBF886310886FB
:0D016C003208863390012C120227D00922A0
:20017900AF82C024C025C0261201868007C022C0238F8222158115811581052CE4B52C02B4
:20019900052D22AF8274302FFF24C6500A74072FFF3000034307208F82020179E582FFC4AE
:2001B900540FF582C00712019CD007740F5FF58202019C85820A85270B85280C85290D8546
:2001D9002A0EAA2B750F20EA2AFAE50E235401FF8A064EFAE50B250BF50BE50C33F50CE5DB
:2001F9000D33F50DE50E33F50EC3EA950A4008EAC3950AFA430B01E50F14FF8F0F70C885F0
:200219000B27850C28850D29850E2A8A2B22858222858323852E24852F25853026E4F52CA7
:20023900F52DAD31AE32AF338D828E838FF012074BFC74012DF531E43EF5328F33ECFF70B6
:200259000302072CBF25028003020724C201C202C203C204C205C206C207C2087535007564
:2002790036007537FFAA31AB32AE338A828B838EF012074BFFA3AA82AB838A318B328E33BA
:20029900BF25078F821201798098BF3000402DEF24C6402874FFB53712E53675F00AA42F3A
:2002B900FC24D0F53670C4D20280C0E53775F00AA4FC8F05ED2C24D0F53780AFBF2E0A7430
:2002D900FFB537A775370080A2BF6100400CEF248540075307DFD2008002C200BF200280AA
:2002F9006DBF2B028063BF2D028059BF42028063BF43028068BF44030204CABF460302042C
:20031900E0BF4803020284BF49030204CABF4A03020284BF4C028040BF4F030204D1BF501F
:200339000302045FBF5302805ABF5403020284BF55030204D6BF58030204DBBF5A030202A2
:20035900840204E4D201020284D203020284D204020284D206020284D20702028430060AFF
:20037900E53414F9893487078011E53424FEFE8E348E018705098706198D078F821201796C
:200399000204EDE53424FDFE8E348E01870409870509870619198C278D288E298C828D83A3
:2003B9008EF0120733AD82AE8374FFB537028D37200126C3ED95365020E536C39DF536AE4F
:2003D900368E041EEC6010758220C006C005120179D005D00680EA8E36AE378527828528FB
:2003F900838529F012074BFCFF602F8E041EC374808CF063F08095F050208F82C006C0058E
:20041900120179D005D006AA27AB28AC290ABA00010B8A278B288C2980C12001030204EDD2
:20043900C3ED953640030204EDE536C39DF536AE368E041EEC70030204EB758220C0061279
:200459000179D00680EBE53424FDFC8C348C01870209870309870419198A278B288C29AC9E
:2004790029BC800040047F438014BC600040047F50800BBC400040047F4980027F588F8238
:20049900C00712017975823A120179758230120179758278120179D007BF4902800BBF500A
:2004B9000280068528821201B58527821201B58023D20575350A801C753508801775350AE7
:2004D9008012753510800DD20880098F8212017980028E3630085CE53424FCFE8E348E01C8
:2004F90087020987030987040987061919198A278B288C298E2A7527C475280775298085DA
:20051900273985283A85293B74012539FAE4353AFCAE3B8A278C288E29853982853A83856A
:200539003BF012074BFEFF700302023B8F8212017980CCE535700302023B75381530062D8A
:20055900E53414F9893487048C027B007C007E008A278B288C298E2A200566AA277B007CED
:20057900007E008A278B288C298E2A8054300721E53424FCFE8E348E0187020987030987B3
:20059900040987061919198A278B288C298E2A8030E53424FEFE8E348E0187040987061918
:2005B900EE3395E0FBFA8C278E288B298A2A200510AA27AB287C007E008A278B288C298E4C
:2005D9002A300522E52A30E71BC3E49527FAE49528FBE49529FCE4952AFE8A278B288C29EF
:2005F9008E2A8002C205D209A9387E00752B00853582C006C0011201CCD001D00620090B8A
:20061900E52BC4FCE7FB4CF7198002A72B0EB209E52745284529452A70D289388E05E5368F
:200639007003753601200224200121ED04FEAC36C3EE9C5015758220C006C005C0041201FE
:2006590079D004D005D0061C80E68C3630050E75822DC005120179D00515368023ED60205D
:2006790030030E75822BC005120179D0051536800F30040C758220C005120179D005153636
:20069900200126AE368E041EC3ED9C502F3002067B307C0080047B207C008B82C006C00509
:2006B900120179D005D00680DCC3ED95365008E536C39DF536800775360080028E36A938BC
:2006D9008D068E051EED6026B20920090A09E7C4540FFD8D2B80078705740F5DF52B852BCD
:2006F90082C006C00112019CD001D00680D420010302023BAE368E051EED700302023B7522
:1A0719008220C006120179D00680EB8F8212017902023B852C82852D83222B
:0B07C4003C4E4F20464C4F41543E007D
:18073300AA82AB8312074B6003A380F8C3E5829AF582E5839BF583229A
:0D00060075813B120767E58260030200036D
:1C074B0020F71430F6148883A88220F507E6A88375830022E280F7E49322E022BD
:040767007582002275
:00000001FF
