:03000000020006F5
:03005F0002000399
:030003000200D91F
:2000620075B1677E007F01EE24FFFCEF34FFFD8C068D07EC4D70F0E5B130E7FB75B288228F
:20008200759850758920758DDCD28E438E10438780D29943A4012275FFDE75FFAD1200621E
:2000A20012008243E10443E34022AF8210990280FB8F992210980280FB8599821200AC8551
:2000C2009982222098057582FF800BC2988599821200AC859982221200997582201200ACA9
:2000E20074DAC0E07407C0E07480C0E01201BF1581158115811200B6AE827F00BE3109BF9F
:2001020000067C127D008010BE3209BF00067C0E7D0180047C007D00C005C004C004C005E7
:20012200740CC0E07408C0E07480C0E01201BFE58124FBF5817422C0E07408C0E07480C01A
:20014200E01201BF158115811581D004D0057E007F00C3EC9EED64808FF063F08095F0503E
:20016200030200E2C007C006C005C004C006C007C006C0077436C0E07408C0E07480C0E06C
:190182001201BFE58124F9F581D004D005D006D0070EBE00BD0F80BA224F
:2007DA000D0A20656E746572203120746F20636F756E7420746F203138206F72203220749A
:2007FA006F20636F756E7420746F20323730200D0A000A20636F756E742076616C75652084
:20081A0069732025752020000A0A20446563696D616C202020686578200A0D00257520204F
:07083A00202578200A0D00C3
:06003500E478FFF6D8FD9F
:200013007900E94400601B7A0090084C780175AF00E493F2A308B8000205AFD9F4DAF27521
:02003300AFFF1D
:20003B007800E84400600A790175AF00E4F309D8FC7800E84400600C7900900001E4F0A3B4
:04005B00D8FCD9FAFA
:20019B00C0098581091200ACD0092285823185833285F033E4F52EF52FF5308508349001F7
:2001BB009B020296C009858109E50924FBFF8F34E4F52EF52FF530E50924FBF886310886AE
:0D01DB003208863390019B120296D0092253
:2001E800AF82C024C025C0261201F58007C022C0238F8222158115811581052CE4B52C02D6
:20020800052D22AF8274302FFF24C6500A74072FFF3000034307208F820201E8E582FFC4CF
:20022800540FF582C00712020BD007740F5FF58202020B85820A85270B85280C85290D85F6
:200248002A0EAA2B750F20EA2AFAE50E235401FF8A064EFAE50B250BF50BE50C33F50CE56B
:200268000D33F50DE50E33F50EC3EA950A4008EAC3950AFA430B01E50F14FF8F0F70C88580
:200288000B27850C28850D29850E2A8A2B22858222858323852E24852F25853026E4F52C38
:2002A800F52DAD31AE32AF338D828E838FF01207BAFC74012DF531E43EF5328F33ECFF70D8
:2002C8000302079BBF25028003020793C201C202C203C204C205C206C207C2087535007517
:2002E80036007537FFAA31AB32AE338A828B838EF01207BAFFA3AA82AB838A318B328E33DC
:20030800BF25078F821201E88098BF3000402DEF24C6402874FFB53712E53675F00AA42F5B
:20032800FC24D0F53670C4D20280C0E53775F00AA4FC8F05ED2C24D0F53780AFBF2E0A74C0
:20034800FFB537A775370080A2BF6100400CEF248540075307DFD2008002C200BF2002803A
:200368006DBF2B028063BF2D028059BF42028063BF43028068BF4403020539BF460302054B
:200388004FBF48030202F3BF4903020539BF4A030202F3BF4C028040BF4F03020540BF5083
:2003A800030204CEBF5302805ABF54030202F3BF5503020545BF580302054ABF5A03020275
:2003C800F3020553D2010202F3D2030202F3D2040202F3D2060202F3D2070202F330060A86
:2003E800E53414F9893487078011E53424FEFE8E348E018705098706198D078F821201E88E
:2004080002055CE53424FDFE8E348E01870409870509870619198C278D288E298C828D83C3
:200428008EF01207A2AD82AE8374FFB537028D37200126C3ED95365020E536C39DF536AE70
:20044800368E041EEC6010758220C006C0051201E8D005D00680EA8E36AE3785278285281C
:20046800838529F01207BAFCFF602F8E041EC374808CF063F08095F050208F82C006C005AF
:200488001201E8D005D006AA27AB28AC290ABA00010B8A278B288C2980C120010302055C84
:2004A800C3ED9536400302055CE536C39DF536AE368E041EEC700302055A758220C006122A
:2004C80001E8D00680EBE53424FDFC8C348C01870209870309870419198A278B288C29ACC0
:2004E80029BC800040047F438014BC600040047F50800BBC400040047F4980027F588F82C9
:20050800C0071201E875823A1201E87582301201E87582781201E8D007BF4902800BBF50DE
:200528000280068528821202248527821202248023D20575350A801C753508801775350A97
:200548008012753510800DD20880098F821201E880028E3630085CE53424FCFE8E348E01E9
:2005680087020987030987040987061919198A278B288C298E2A75274175280875298085EC
:20058800273985283A85293B74012539FAE4353AFCAE3B8A278C288E29853982853A8385FB
:2005A8003BF01207BAFEFF70030202AA8F821201E880CCE53570030202AA75381530062D5F
:2005C800E53414F9893487048C027B007C007E008A278B288C298E2A200566AA277B007C7E
:2005E800007E008A278B288C298E2A8054300721E53424FCFE8E348E018702098703098744
:20060800040987061919198A278B288C298E2A8030E53424FEFE8E348E01870409870619A8
:20062800EE3395E0FBFA8C278E288B298A2A200510AA27AB287C007E008A278B288C298EDC
:200648002A300522E52A30E71BC3E49527FAE49528FBE49529FCE4952AFE8A278B288C297F
:200668008E2A8002C205D209A9387E00752B00853582C006C00112023BD001D00620090BAA
:20068800E52BC4FCE7FB4CF7198002A72B0EB209E52745284529452A70D289388E05E53620
:2006A8007003753601200224200121ED04FEAC36C3EE9C5015758220C006C005C00412018F
:2006C800E8D004D005D0061C80E68C3630050E75822DC0051201E8D00515368023ED602010
:2006E80030030E75822BC0051201E8D0051536800F30040C758220C0051201E8D0051536E9
:20070800200126AE368E041EC3ED9C502F3002067B307C0080047B207C008B82C006C00599
:200728001201E8D005D00680DCC3ED95365008E536C39DF536800775360080028E36A938DD
:200748008D068E051EED6026B20920090A09E7C4540FFD8D2B80078705740F5DF52B852B5D
:2007680082C006C00112020BD001D00680D42001030202AAAE368E051EED70030202AA7564
:1A0788008220C0061201E8D00680EB8F821201E80202AA852C82852D83226F
:0B0841003C4E4F20464C4F41543E00FF
:1807A200AA82AB831207BA6003A380F8C3E5829AF582E5839BF58322BC
:0D00060075813B1207D6E5826003020003FE
:1C07BA0020F71430F6148883A88220F507E6A88375830022E280F7E49322E0224E
:0407D6007582002206
:00000001FF
