:040000000200513277
:01000B0032C2
:0100130032BA
:01001B0032B2
:0100230032AA
:01002B0032A2
:01003300329A
:01003B003292
:01004300328A
:03004B000201931C
:2000AA007508CC75090A750A1E750B0F750C7B750D06750ECC750F0A7510FF75116F02005D
:0100CA004EE7
:03004E000201426A
:2000CB0075B1677E007F01EE24FFFCEF34FFFD8C068D07EC4D70F0E5B130E7FB75B2882226
:2000EB00759850758920758DDCD28E438E10438780D29943A4012275FFDE75FFAD1200CB4C
:20010B001200EB43E10443E34022AF8210990280FB8F992210980280FB8599821201158514
:20012B009982222098057582FF800BC2988599821201158599822212010275822012011501
:20014B0012017B12017F12018312018D74B7C0E07409C0E07480C0E012039C1581158115D0
:20016B00811201A485080E85090F12030B80FB2275A5012275E1272275D98175DAC243D870
:20018B00402243E608D2AF2230DF0A8510E98511F9C2DF800353D8C03274DEC0E07409C088
:2001AB00E07480C0E012039C15811581158112011F8582127420B5120280517472B5120D1A
:2001CB00740A250EF50EE4350FF50F8011746CB5120CE50E24F6F50EE50F34FFF50FC00EE7
:2001EB00C00F743FC0E0740AC0E07480C0E012039CE58124FBF58174FFC3950EF5EA74FF49
:20020B00950FF5FA12011F85821280A8850E08850F09744EC0E0740AC0E07480C0E012036C
:20022B009C158115811581749DC0E0740AC0E07480C0E012039C15811581158112011F85C8
:20024B0082127420B51202802D746CB5120CE50E24F6F50EE50F34FFF50FAF0E74FFC39F75
:20026B00F5EA74FFC3950E74FF950FFF8FFA12011F85821280CC850E0C850F0D85080E8525
:20028B00090FAF0E74FFC39FF5EA74FFC3950E74FF950FFF8FFA74CEC0E0740AC0E074805E
:2002AB00C0E012039C158115811581749DC0E0740AC0E07480C0E012039C1581158115814A
:2002CB0012011F8582127420B51202802C7472B5120B740A250EF50EE4350FF50FAF0E74F6
:2002EB00FFC39FF5EA74FFC3950E74FF950FFF8FFA12011F85821280CD850E0A850F0B2245
:20030B0012011F8582127472B51218C3E50E950AE50F950B5029740A250EF50EE4350FF58F
:20032B000F801C746CB51217C3E50C950EE50D950F500CE50E24F6F50EE50F34FFF50FC005
:20034B000EC00F743FC0E0740AC0E07480C0E012039CE58124FBF581AF0E74FFC39FF5EA93
:0D036B0074FFC3950E74FF950FFF8FFA22EB
:2009B700456D62656464656420436F6E74726F6C205374656572696E672043616C69627247
:2009D7006174696F6E0A000D50726573732022722220616E6420226C2220746F207475724A
:2009F7006E2074686520776865656C7320726967687420616E64206C65667420756E74692D
:200A17006C2074686579206172652063656E74657265642C207468656E207072657373204F
:200A370073706163652E0A00534552564F5F50573A2025750A0D000D0A5072657373202255
:200A57006C2220756E74696C2074686520776865656C732061726520696E20746865206C60
:200A7700656674206D6F737420706F736974696F6E2C207468656E2070726573732073705D
:200A97006163652E0A000D546865207374656572696E67206D656368616E69736D2073685F
:200AB7006F756C64206E6F742062652073747265737365642E0A000D0A50726573732022E8
:200AD700722220756E74696C2074686520776865656C732061726520696E207468652072D4
:200AF70069676874206D6F737420706F736974696F6E2C207468656E2070726573732073E0
:070B1700706163652E0A0006
:06008000E478FFF6D8FD54
:20005E007900E94400601B7A00900B29780175AF00E493F2A308B8000205AFD9F4DAF275F6
:02007E00AFFFD2
:200086007800E84400600A790175AF00E4F309D8FC7800E84400600C7900900001E4F0A369
:0400A600D8FCD9FAAF
:20037800C016858116120115D0162285823185833285F033E4F52EF52FF530851534900378
:2003980078020473C016858116E51624FBFF8F34E4F52EF52FF530E51624FBF886310886DF
:0D03B80032088633900378120473D01622A9
:2003C500AF82C024C025C0261203D28007C022C0238F8222158115811581052CE4B52C0218
:2003E500052D22AF8274302FFF24C6500A74072FFF3000034307208F820203C5E582FFC412
:20040500540FF582C0071203E8D007740F5FF5820203E885821785271885281985291A8527
:200425002A1BAA2B751C20EA2AFAE51B235401FF8A064EFAE5182518F518E51933F519E524
:200445001A33F51AE51B33F51BC3EA95174008EAC39517FA431801E51C14FF8F1C70C8852C
:200465001827851928851A29851B2A8A2B22858222858323852E24852F25853026E4F52C25
:20048500F52DAD31AE32AF338D828E838FF0120997FC74012DF531E43EF5328F33ECFF701A
:2004A50003020978BF25028003020970C201C202C203C204C205C206C207C208753500757A
:2004C50036007537FFAA31AB32AE338A828B838EF0120997FFA3AA82AB838A318B328E331E
:2004E500BF25078F821203C58098BF3000402DEF24C6402874FFB53712E53675F00AA42F9E
:20050500FC24D0F53670C4D20280C0E53775F00AA4FC8F05ED2C24D0F53780AFBF2E0A74E1
:20052500FFB537A775370080A2BF6100400CEF248540075307DFD2008002C200BF2002805B
:200545006DBF2B028063BF2D028059BF42028063BF43028068BF4403020716BF460302078B
:200565002CBF48030204D0BF4903020716BF4A030204D0BF4C028040BF4F0302071DBF504B
:20058500030206ABBF5302805ABF54030204D0BF5503020722BF5803020727BF5A03020418
:2005A500D0020730D2010204D0D2030204D0D2040204D0D2060204D0D2070204D030060A90
:2005C500E53414F9893487078011E53424FEFE8E348E018705098706198D078F821203C5D0
:2005E500020739E53424FDFE8E348E01870409870509870619198C278D288E298C828D8306
:200605008EF012097FAD82AE8374FFB537028D37200126C3ED95365020E536C39DF536AEB2
:20062500368E041EEC6010758220C006C0051203C5D005D00680EA8E36AE3785278285285E
:20064500838529F0120997FCFF602F8E041EC374808CF063F08095F050208F82C006C005F1
:200665001203C5D005D006AA27AB28AC290ABA00010B8A278B288C2980C1200103020739E7
:20068500C3ED95364003020739E536C39DF536AE368E041EEC7003020737758220C006128D
:2006A50003C5D00680EBE53424FDFC8C348C01870209870309870419198A278B288C29AC02
:2006C50029BC800040047F438014BC600040047F50800BBC400040047F4980027F588F82EA
:2006E500C0071203C575823A1203C57582301203C57582781203C5D007BF4902800BBF5084
:200705000280068528821204018527821204018023D20575350A801C753508801775350AFA
:200725008012753510800DD20880098F821203C580028E3630085CE53424FCFE8E348E012B
:2007450087020987030987040987061919198A278B288C298E2A75271E75280B752980852D
:20076500273985283A85293B74012539FAE4353AFCAE3B8A278C288E29853982853A83851C
:200785003BF0120997FEFF70030204878F821203C580CCE535700302048775384130062DD8
:2007A500E53414F9893487048C027B007C007E008A278B288C298E2A200566AA277B007C9F
:2007C500007E008A278B288C298E2A8054300721E53424FCFE8E348E018702098703098765
:2007E500040987061919198A278B288C298E2A8030E53424FEFE8E348E01870409870619CA
:20080500EE3395E0FBFA8C278E288B298A2A200510AA27AB287C007E008A278B288C298EFD
:200825002A300522E52A30E71BC3E49527FAE49528FBE49529FCE4952AFE8A278B288C29A0
:200845008E2A8002C205D209A9387E00752B00853582C006C001120418D001D00620090BEC
:20086500E52BC4FCE7FB4CF7198002A72B0EB209E52745284529452A70D289388E05E53641
:200885007003753601200224200121ED04FEAC36C3EE9C5015758220C006C005C0041203AE
:2008A500C5D004D005D0061C80E68C3630050E75822DC0051203C5D00515368023ED602075
:2008C50030030E75822BC0051203C5D0051536800F30040C758220C0051203C5D00515364C
:2008E500200126AE368E041EC3ED9C502F3002067B307C0080047B207C008B82C006C005BB
:200905001203C5D005D00680DCC3ED95365008E536C39DF536800775360080028E36A9381F
:200925008D068E051EED6026B20920090A09E7C4540FFD8D2B80078705740F5DF52B852B7E
:2009450082C006C0011203E8D001D00680D4200103020487AE368E051EED700302048775E9
:1A0965008220C0061203C5D00680EB8F821203C5020487852C82852D8322F3
:0B0B1E003C4E4F20464C4F41543E001F
:18097F00AA82AB831209976003A380F8C3E5829AF582E5839BF58322FE
:0D0051007581411209B3E582600302004E83
:1C09970020F71430F6148883A88220F507E6A88375830022E280F7E49322E0226F
:0409B3007582002227
:00000001FF
