:040000000200513277
:01000B0032C2
:0100130032BA
:01001B0032B2
:0100230032AA
:01002B0032A2
:01003300329A
:01003B003292
:01004300328A
:03004B0002067832
:0300AA0002004E03
:03004E000205AFF9
:2000AD0075B1677E007F01EE24FFFCEF34FFFD8C068D07EC4D70F0E5B130E7FB75B2882244
:2000CD00759850758920758DDCD28E438E10438780D29943A4012275FFDE75FFAD1200AD88
:2000ED001200CD43E10443E34022AF8210990280FB8F992210980280FB8599821200F78570
:20010D009982222098057582FF800BC2988599821200F785998222C029858129E52924FB4D
:20012D00F886820886830886F0120E13E5828583F045F070028062E52924FBFF8F25E5291A
:20014D0024FBF8862208862308862490000175F00012078190000175F000120E13AE827F08
:20016D0000C3EF9E501FEF2401F582E43400F583E0FDBD0A0DEF2401F582E43400F5837458
:20018D000DF00F80DC7511017512007513007510008E147582C6120435D02922750B007416
:2001AD00C0250B401775160B7517007518407515007519017582C61204AF80E3750C0C75FC
:2001CD00110C7512007513407510007514017582C61204352275160E7517007518407515F1
:2001ED00017519027582C61204AF74FFB50E05758200805F7F008F068EF005F07C017D004D
:20020D008006EC2CFCED33FDD5F0F7AA0E7B00EA5204EB5205EC4D600774312FF58280330B
:20022D000E8E07BE080040D0E50F30E0057582398021E50F30E10575822A8017E50F30E296
:20024D0005758230800DE50F30E30575822380037582FF22AF82E4FDFEEF701DC006C00500
:20026D00744BC0E0740EC0E07480C0E0120124158115811581D005D006C006C0057408C0F1
:20028D00E0E4C0E07408C0E0E4C0E07408C0E0E4C0E07408C0E0E4C0E07408C0E0E4C0E06D
:2002AD007461C0E0740EC0E07480C0E0120124E58124F3F58190A12075F007E41203D0D086
:2002CD0005D0067F00C007C006C0051201E2AC82D005D006D0078C03BCFF028003BB2A17F5
:2002ED00902710E4F5F0C007C006C0051203D0D005D006D00780CEBB232AC006C0051201B4
:20030D00E2AC82D005D006BC2313902710E4F5F0C006C0051203D0D005D00680DD8D828E7E
:20032D00830203CF8B027C00C007C006C005C004C003C002C002C0047471C0E0740EC0E088
:20034D007480C0E0120124E58124FBF581D002D003D004D005D0068D458E4690000AC004A2
:20036D00C003C0021206F4A882A983D002D003D004D007EA28F8EC39F9E824D0FDE934FF1C
:20038D00FEC007C006C005C0031201E2AC82D003D005D006D007ECB5031B902710E4F5F076
:2003AD00C007C006C005C0031203D0D003D005D006D00780CC0FBF050050030202D28D828A
:2003CD008E8322AC82AD83AEF0FF780079007A007B00C3E89CE99DEA9EEB9F500F08B800FE
:2003ED000909B900050ABA00E90B80E62220C7FDD2C530C3FDC2C5C2C3228582C210C302A9
:20040D0080FB228582C2D2C410C30280FB2230C3FD85C282C2C32230C3FDAFC2C2C3D2C485
:20042D0010C30280FB8F8222AF82C2AFC0071203FAD00774FE5FF58212040785108212044B
:20044D00077F00AD147E001DBDFF011E8F037C00C3EB9DEC64808EF063F08095F0501FEF75
:20046D002511FCE43512FDAE138C828D838EF0120E2BF582C007120407D0070F80C5AE1425
:20048D007F001EBEFF011FEE2511FEEF3512FFAD138E828F838DF0120E2BF582120410D265
:2004AD00AF22AF82C2AFC0071203FAD00774FE5FF582C0071204078515821204101203FA92
:2004CD00D00774014FF5821204077F00AD197E001DBDFF011E8F037C00C3EB9DEC64808E6E
:2004ED00F063F08095F0502ED2C2EF2516FCE43517FDAE18C007C006C005C00412041BAB8A
:20050D0082D004D005D006D0078C828D838EF0EB1206D90F80B6C2C2AE197F001EBEFF0193
:20052D001FEE2516FEEF3517FFAD18C007C006C005120424AC82D005D006D0078E828F830B
:20054D008DF0EC1206D9D2AF22750823750900750910750A00751108751200751340751004
:20056D00207514017582301204352275080475110875120075134075102375140175823A6F
:20058D0012043575086B750900750A0075110875120075134075102075140175823A1204CB
:2005AD0035221200E412065E12066212066B12067275820D1200F77474C0E0740EC0E074B9
:2005CD0080C0E0120830158115811581E4F51AF51BC3E51A9401E51B940040F51201A9748F
:2005ED007DC0E0740EC0E07480C0E0120124158115811581758201120261AE82AF83C0078C
:20060D00C0061206B71201A9D006D007C007C006C006C007C006C00774B1C0E0740EC0E041
:20062D007480C0E0120124E58124F9F581D006D007C006C007C006C00774CEC0E0740EC0FE
:20064D00E07480C0E0120830E58124F9F58180A42275E11F2243A80243E608D2AF2275D9EA
:20066D008143D8402275CF93D2C622C0E0C0D010DF02802E051EE4B51E02051F051CE4B555
:20068D001C02051D75E90075F970C37432951CE4951D5011E4F51CF51D051AB51A07051BA4
:2006AD00800353D8C0D0D0D0E032E4F51CF51DC3E51C9401E51D940040F522E4F51CF51DE9
:0C06CD00C3E51C9432E51D940040F522AA
:200E4B000A54797065206469676974733B20656E6420772F230020202020202563256325E7
:200E6B006325632563002563000A53746172740D0A0043616C6962726174696F6E3A0A4849
:200E8B00656C6C6F20776F726C64210A3031325F3334355F3637383A0A61626320646566DD
:200EAB00206768696A00596F7572206B6579207761733A0A2025752C20203D2048657820D6
:200ECB002558000A0D596F7572206B6579207761733A2025642C20203D2048657820255882
:010EEB000006
:06008000E478FFF6D8FD54
:20005E007900E94400601B7A00900EF7785175AF00E493F2A308B8000205AFD9F4DAF275D5
:02007E00AFFFD2
:1B06D90020F71130F6138883A88220F509F6A8837583002280FEF280F5F02220
:1D06F400E5828545F0A4C582C0F08546F0A4D0F025F0C5838545F0A42583F5832211
:20071100C029858129C082058105810581E52924FBF8A9290909E6F70809E6F70809E6F71A
:20073100A829080886820886830886F0120E2BFAA3120E2BFBA3120E2BFF74012AFCE43B5B
:20075100FD8F06A829080886820886830886F0EC1206D9A3ED1206D9A3EE1206D98A828B07
:20077100838FF0A82908E61206D9852981D0292285822685832785F028753726753800757F
:20079100394085223A85233B85243C85253D900711120907AE82AF83AB26AC27AD288B828D
:2007B1008C838DF0E41206D98E828F8322C029858129E52924F8FF8F3DE52924FBFF8F3784
:2007D100753800753940E52924F8F8863A08863B08863C900711120907AE82AF83E529249A
:1B07F100FBF886030886040886058B828C838DF0E41206D98E828F83D02922A1
:200086007800E84400600A790175AF00E4F309D8FC7850E84400600C7901900001E4F0A318
:0400A600D8FCD9FAAF
:20080C00C0298581291200F7D0292285823A85833B85F03CE4F537F538F539852A3D90086C
:20082C000C020907C029858129E52924FBFF8F3DE4F537F538F539E52924FBF8863A0886A0
:0D084C003B08863C90080C120907D02922B9
:20085900AF82C02DC02EC02F1208668007C02BC02C8F82221581158115810535E4B53502A7
:20087900053622AF8274302FFF24C6500A74072FFF3000034307208F82020859E582FFC4D7
:20089900540FF582C00712087CD007740F5FF58202087C858245853046853147853248858A
:2008B9003349AA34754A20EA2AFAE549235401FF8A064EFAE5462546F546E54733F547E50A
:2008D9004833F548E54933F549C3EA95454008EAC39545FA434601E54A14FF8F4A70C885F6
:2008F90046308547318548328549338A342285822B85832C85372D85382E85392FE4F53557
:20091900F536AD3AAE3BAF3C8D828E838FF0120E2BFC74012DF53AE43EF53B8F3CECFF70A9
:2009390003020E0CBF25028003020E04C201C202C203C204C205C206C207C208753E0075A6
:200959003F007540FFAA3AAB3BAE3C8A828B838EF0120E2BFFA3AA82AB838A3A8B3B8E3CA4
:20097900BF25078F821208598098BF3000402DEF24C6402874FFB54012E53F75F00AA42F5A
:20099900FC24D0F53F70C4D20280C0E54075F00AA4FC8F05ED2C24D0F54080AFBF2E0A742E
:2009B900FFB540A775400080A2BF6100400CEF248540075307DFD2008002C200BF200280B1
:2009D9006DBF2B028063BF2D028059BF42028063BF43028068BF4403020BAABF4603020B57
:2009F900C0BF4803020964BF4903020BAABF4A03020964BF4C028040BF4F03020BB1BF50BD
:200A190003020B3FBF5302805ABF5403020964BF5503020BB6BF5803020BBBBF5A03020918
:200A390064020BC4D201020964D203020964D204020964D206020964D20702096430060ACE
:200A5900E53D14F9893D87078011E53D24FEFE8E3D8E018705098706198D078F821208597A
:200A7900020BCDE53D24FDFE8E3D8E01870409870509870619198C308D318E328C828D83A8
:200A99008EF0120E13AD82AE8374FFB540028D40200126C3ED953F5020E53FC39DF53FAE54
:200AB9003F8E041EEC6010758220C006C005120859D005D00680EA8E3FAE40853082853100
:200AD900838532F0120E2BFCFF602F8E041EC374808CF063F08095F050208F82C006C005B7
:200AF900120859D005D006AA30AB31AC320ABA00010B8A308B318C3280C1200103020BCDE8
:200B1900C3ED953F4003020BCDE53FC39DF53FAE3F8E041EEC7003020BCB758220C00612A0
:200B39000859D00680EBE53D24FDFC8C3D8C01870209870309870419198A308B318C32ACA3
:200B590032BC800040047F438014BC600040047F50800BBC400040047F4980027F588F8248
:200B7900C00712085975823A120859758230120859758278120859D007BF4902800BBF5087
:200B99000280068531821208958530821208958023D205753E0A801C753E088017753E0A05
:200BB9008012753E10800DD20880098F8212085980028E3F30085CE53D24FCFE8E3D8E01D6
:200BD90087020987030987040987061919198A308B318C328E337530EC75310E7532808585
:200BF900304285314385324474012542FAE43543FCAE448A308C318E328542828543838506
:200C190044F0120E2BFEFF700302091B8F8212085980CCE53E700302091B75415030062DB1
:200C3900E53D14F9893D87048C027B007C007E008A308B318C328E33200566AA307B007CC7
:200C5900007E008A308B318C328E338054300721E53D24FCFE8E3D8E018702098703098796
:200C7900040987061919198A308B318C328E338030E53D24FEFE8E3D8E01870409870619FB
:200C9900EE3395E0FBFA8C308E318B328A33200510AA30AB317C007E008A308B318C328E14
:200CB90033300522E53330E71BC3E49530FAE49531FBE49532FCE49533FE8A308B318C32B7
:200CD9008E338002C205D209A9417E00753400853E82C006C0011208ACD001D00620090B98
:200CF900E534C4FCE7FB4CF7198002A7340EB209E53045314532453370D289418E05E53F61
:200D19007003753F01200224200121ED04FEAC3FC3EE9C5015758220C006C005C0041208FE
:200D390059D004D005D0061C80E68C3F30050E75822DC005120859D005153F8023ED60209D
:200D590030030E75822BC005120859D005153F800F30040C758220C005120859D005153F6F
:200D7900200126AE3F8E041EC3ED9C502F3002067B307C0080047B207C008B82C006C00519
:200D9900120859D005D00680DCC3ED953F5008E53FC39DF53F8007753F0080028E3FA941B8
:200DB9008D068E051EED6026B20920090A09E7C4540FFD8D3480078705740F5DF5348534CB
:200DD90082C006C00112087CD001D00680D420010302091BAE3F8E051EED700302091B757D
:1A0DF9008220C006120859D00680EB8F8212085902091B853582853683227E
:0B0EEC003C4E4F20464C4F41543E004E
:180E1300AA82AB83120E2B6003A380F8C3E5829AF582E5839BF58322CC
:0D005100758150120E47E582600302004EDB
:1C0E2B0020F71430F6148883A88220F507E6A88375830022E280F7E49322E022D6
:040E4700758200228E
:00000001FF
