:03000000020006F5
:03005F0002000399
:030003000200D91F
:2000620075B1677E007F01EE24FFFCEF34FFFD8C068D07EC4D70F0E5B130E7FB75B288228F
:20008200759850758920758DDCD28E438E10438780D29943A4012275FFDE75FFAD1200621E
:2000A20012008243E10443E34022AF8210990280FB8F992210980280FB8599821200AC8551
:2000C2009982222098057582FF800BC2988599821200AC859982221200997582201200ACA9
:2000E20074C4C0E07407C0E07480C0E01201A915811581158174E3C0E07407C0E07480C033
:20010200E01201A91581158115811200B6E582F50824D0F50924FA400512015A8009E5091A
:2001220024FA5003120144740EC0E07408C0E07480C0E01201A91581158115811200B6805D
:20014200B422742CC0E07408C0E07480C0E01201A9158115811581227439C0E07408C0E0CE
:200162007480C0E01201A91581158115817442C0E07408C0E07480C0E01201A9158115817D
:03018200158122C2
:2007C4004C4954454320486F6D65776F726B2041737369676E6D656E7420320D0A0A004547
:2007E4006E7465722061206F6E65206469676974206E756D62657220677265617465722055
:200804007468616E2035200D0A00507265737320616E79206B657920746F207472792061BC
:200824006761696E200D0A000A476F6F64206A6F62200D0A000A4F6F7073200D0A004E6F1A
:1108440074207175697465207269676874200D0A0072
:06003500E478FFF6D8FD9F
:200013007900E94400601B7A00900860780175AF00E493F2A308B8000205AFD9F4DAF2750D
:02003300AFFF1D
:20003B007800E84400600A790175AF00E4F309D8FC7800E84400600C7900900001E4F0A3B4
:04005B00D8FCD9FAFA
:20018500C00B85810B1200ACD00B2285823185833285F033E4F52EF52FF530850A34900105
:2001A50085020280C00B85810BE50B24FBFF8F34E4F52EF52FF530E50B24FBF886310886E8
:0D01C50032088633900185120280D00B2293
:2001D200AF82C024C025C0261201DF8007C022C0238F8222158115811581052CE4B52C0202
:2001F200052D22AF8274302FFF24C6500A74072FFF3000034307208F820201D2E582FFC4FC
:20021200540FF582C0071201F5D007740F5FF5820201F585820C85270D85280E85290F8532
:200232002A10AA2B751120EA2AFAE510235401FF8A064EFAE50D250DF50DE50E33F50EE571
:200252000F33F50FE51033F510C3EA950C4008EAC3950CFA430D01E51114FF8F1170C88584
:200272000D27850E28850F2985102A8A2B22858222858323852E24852F25853026E4F52C46
:20029200F52DAD31AE32AF338D828E838FF01207A4FC74012DF531E43EF5328F33ECFF7004
:2002B20003020785BF2502800302077DC201C202C203C204C205C206C207C2087535007559
:2002D20036007537FFAA31AB32AE338A828B838EF01207A4FFA3AA82AB838A318B328E3308
:2002F200BF25078F821201D28098BF3000402DEF24C6402874FFB53712E53675F00AA42F88
:20031200FC24D0F53670C4D20280C0E53775F00AA4FC8F05ED2C24D0F53780AFBF2E0A74D6
:20033200FFB537A775370080A2BF6100400CEF248540075307DFD2008002C200BF20028050
:200352006DBF2B028063BF2D028059BF42028063BF43028068BF4403020523BF4603020577
:2003720039BF48030202DDBF4903020523BF4A030202DDBF4C028040BF4F0302052ABF5007
:20039200030204B8BF5302805ABF54030202DDBF550302052FBF5803020534BF5A030202E3
:2003B200DD02053DD2010202DDD2030202DDD2040202DDD2060202DDD2070202DD30060A36
:2003D200E53414F9893487078011E53424FEFE8E348E018705098706198D078F821201D2BA
:2003F200020546E53424FDFE8E348E01870409870509870619198C278D288E298C828D83F0
:200412008EF012078CAD82AE8374FFB537028D37200126C3ED95365020E536C39DF536AE9C
:20043200368E041EEC6010758220C006C0051201D2D005D00680EA8E36AE37852782852848
:20045200838529F01207A4FCFF602F8E041EC374808CF063F08095F050208F82C006C005DB
:200472001201D2D005D006AA27AB28AC290ABA00010B8A278B288C2980C1200103020546C6
:20049200C3ED95364003020546E536C39DF536AE368E041EEC7003020544758220C006126C
:2004B20001D2D00680EBE53424FDFC8C348C01870209870309870419198A278B288C29ACEC
:2004D20029BC800040047F438014BC600040047F50800BBC400040047F4980027F588F82DF
:2004F200C0071201D275823A1201D27582301201D27582781201D2D007BF4902800BBF504D
:2005120002800685288212020E85278212020E8023D20575350A801C753508801775350AD9
:200532008012753510800DD20880098F821201D280028E3630085CE53424FCFE8E348E0115
:2005520087020987030987040987061919198A278B288C298E2A75275575280875298085EE
:20057200273985283A85293B74012539FAE4353AFCAE3B8A278C288E29853982853A838511
:200592003BF01207A4FEFF70030202948F821201D280CCE535700302029475381730062DCB
:2005B200E53414F9893487048C027B007C007E008A278B288C298E2A200566AA277B007C94
:2005D200007E008A278B288C298E2A8054300721E53424FCFE8E348E01870209870309875A
:2005F200040987061919198A278B288C298E2A8030E53424FEFE8E348E01870409870619BF
:20061200EE3395E0FBFA8C278E288B298A2A200510AA27AB287C007E008A278B288C298EF2
:200632002A300522E52A30E71BC3E49527FAE49528FBE49529FCE4952AFE8A278B288C2995
:200652008E2A8002C205D209A9387E00752B00853582C006C001120225D001D00620090BD6
:20067200E52BC4FCE7FB4CF7198002A72B0EB209E52745284529452A70D289388E05E53636
:200692007003753601200224200121ED04FEAC36C3EE9C5015758220C006C005C0041201A5
:2006B200D2D004D005D0061C80E68C3630050E75822DC0051201D2D00515368023ED602052
:2006D20030030E75822BC0051201D2D0051536800F30040C758220C0051201D2D00515362B
:2006F200200126AE368E041EC3ED9C502F3002067B307C0080047B207C008B82C006C005B0
:200712001201D2D005D00680DCC3ED95365008E536C39DF536800775360080028E36A93809
:200732008D068E051EED6026B20920090A09E7C4540FFD8D2B80078705740F5DF52B852B73
:2007520082C006C0011201F5D001D00680D4200103020294AE368E051EED700302029475BD
:1A0772008220C0061201D2D00680EB8F821201D2020294852C82852D8322C7
:0B0855003C4E4F20464C4F41543E00EB
:18078C00AA82AB831207A46003A380F8C3E5829AF582E5839BF58322E8
:0D00060075813B1207C0E582600302000314
:1C07A40020F71430F6148883A88220F507E6A88375830022E280F7E49322E02264
:0407C000758200221C
:00000001FF
