:040000000200513277
:01000B0032C2
:0100130032BA
:01001B0032B2
:0100230032AA
:01002B0032A2
:01003300329A
:01003B003292
:01004300328A
:03004B000208D8D0
:2000AA007536FF75376F753800753900753A34753B08753C34753D08753E2D753F00E4F56F
:2000CA0040F541F545F5467547CC75480A754992754A0D754B50754C09754DCC754E0AF596
:2000EA004FF550F551F552F553755440F555F5567557EB7558077559AE755A0D755BCC75FB
:0F010A005C0A755DCC755E0AF55FF56002004E0C
:03004E0002061B8C
:2001190075B1677E007F01EE24FFFCEF34FFFD8C068D07EC4D70F0E5B130E7FB75B28822D7
:20013900759850758920758DDCD28E438E10438780D29943A4012275FFDE75FFAD120119AE
:2001590012013943E10443E34022AF8210990280FB8F992210980280FB8599821201638529
:200179009982222098057582FF800BC29885998212016385998222C00F85810FE50F24FBC2
:20019900F886820886830886F0121534E5828583F045F070028062E50F24FBFF8F0BE50FD4
:2001B90024FBF8860808860908860A90000175F000120D8890000175F000121534AE827FB5
:2001D90000C3EF9E501FEF2401F582E43400F583E0FDBD0A0DEF2401F582E43400F58374EC
:2001F9000DF00F80DC752D01752E00752F00752C008E307582C61204A1D00F2275270074B0
:20021900C0252740177532277533007534407531007535017582C612051B80E375280C7542
:200239002D28752E00752F40752C007530017582C61204A12275322A7533007534407531E4
:20025900017535027582C612051B74FFB52A05758200805F7F008F068EF005F07C017D003B
:200279008006EC2CFCED33FDD5F0F7AA2A7B00EA5204EB5205EC4D600774312FF582803383
:200299000E8E07BE080040D0E52B30E0057582398021E52B30E10575822A8017E52B30E2D6
:2002B90005758230800DE52B30E30575822380037582FF22AF82E4FDFEEF701DC006C00578
:2002D9007451C0E07417C0E07480C0E0120190158115811581D005D006C006C0057408C00A
:2002F900E0E4C0E07408C0E0E4C0E07408C0E0E4C0E07408C0E0E4C0E07408C0E0E4C0E001
:200319007467C0E07417C0E07480C0E0120190E58124F3F58190A12075F007E412043CD031
:2003390005D0067F00C007C006C00512024EAC82D005D006D0078C03BCFF028003BB2A171B
:20035900902710E4F5F0C007C006C00512043CD005D006D00780CEBB232AC006C0051202D9
:200379004EAC82D005D006BC2313902710E4F5F0C006C00512043CD005D00680DD8D828E39
:200399008302043B8B027C00C007C006C005C004C003C002C002C0047477C0E07417C0E0A0
:2003B9007480C0E0120190E58124FBF581D002D003D004D005D0068D118E1290000AC00432
:2003D900C003C002120CFBA882A983D002D003D004D007EA28F8EC39F9E824D0FDE934FFA3
:2003F900FEC007C006C005C00312024EAC82D003D005D006D007ECB5031B902710E4F5F09D
:20041900C007C006C005C00312043CD003D005D006D00780CC0FBF0500500302033E8D8243
:200439008E8322AC82AD83AEF0FF780079007A007B00C3E89CE99DEA9EEB9F500F08B80091
:200459000909B900050ABA00E90B80E62220C7FDD2C530C3FDC2C5C2C3228582C210C3023C
:2004790080FB228582C2D2C410C30280FB2230C3FD85C282C2C32230C3FDAFC2C2C3D2C419
:2004990010C30280FB8F8222AF82C2AFC007120466D00774FE5FF582120473852C821204EA
:2004B900737F00AD307E001DBDFF011E8F037C00C3EB9DEC64808EF063F08095F0501FEF81
:2004D900252DFCE4352EFDAE2F8C828D838EF012160FF582C007120473D0070F80C5AE30F1
:2004F9007F001EBEFF011FEE252DFEEF352EFFAD2F8E828F838DF012160FF58212047CD24D
:20051900AF22AF82C2AFC007120466D00774FE5FF582C00712047385318212047C12046657
:20053900D00774014FF5821204737F00AD357E001DBDFF011E8F037C00C3EB9DEC64808E79
:20055900F063F08095F0502ED2C2EF2532FCE43533FDAE34C007C006C005C004120487AB5D
:2005790082D004D005D006D0078C828D838EF0EB120CE00F80B6C2C2AE357F001EBEFF01FE
:200599001FEE2532FEEF3533FFAD34C007C006C005120490AC82D005D006D0078E828F83DF
:2005B9008DF0EC120CE0D2AF22752223752300752310752400752D22752E00752F40752C99
:2005D900207530017582301204A122752204752D22752E00752F40752C2375300175823ABB
:2005F9001204A175226B752300752400752D22752E00752F40752C2075300175823A1204FF
:20061900A1221201507582201201631208921208A912089F1208C51208A31208D2747AC0B0
:20063900E07417C0E07480C0E0120F37158115811581748EC0E07417C0E07480C0E0120F66
:2006590037158115811581E546707974C1C0E07417C0E07480C0E0120F37158115811581C6
:2006790012016D8582427431B5420AE4F53CF53D75460180D27432B5420B753C84753D030B
:2006990075460180C27433B5420B753C08753D0775460180B27434B5420B753C8C753D0A97
:2006B90075460180A2AE427F00C006C00774FFC0E07417C0E07480C0E0120F37E58124FB98
:2006D900F5818083742DC0E07418C0E07480C0E0120F371581158115817464C0E07418C0A9
:2006F900E07480C0E0120F37158115811581A2B7E433F555755600753800A2B7E433FE7F34
:2007190000B55506EFB5560280030207D174D8253850FA1208B385458212162BAC82AD839A
:20073900AEF0FFE4C0E0C0E0747FC0E07443C0E08C828D838EF0EF12154CAC82AD83AEF0FB
:20075900FFE58124FCF581C004C005C006C00790333375F0237441120BDC85825185835291
:2007790085F053F554E58124FCF581C051C052C053C05490000075F0C87442120BDCAC826F
:20079900AD83AEF0FFE58124FCF5818C828D838EF0EF120E6CAE82AF83C006C007748DC0B0
:2007B900E07418C0E07480C0E0120F37E58124FBF581753800020713C051C052C053C0541A
:2007D90090000075F0C87442120BDCAC82AD83AEF0FFE58124FCF5818C828D838EF0EF1200
:2007F9000E6CAE82AF83C006C00774A5C0E07418C0E07480C0E0120F37E58124FBF5818526
:20081900474D85484E855B5D855C5E120215753800753900120AB5120939C3E5409419E571
:2008390041940040EF120215C03EC03FC03AC03B74B9C0E07418C0E07480C0E0120190E56B
:200859008124F9F581E54DC39547FEE54E9548FFC006C007C03EC03FC03AC03B74D6C0E024
:200879007418C0E07480C0E0120F37E58124F7F581E4F540F541809C2275A50543908053FE
:20089900A77F43B0802275E11F2275CF93D2C62275D10343AB0175AA802275AC0753AADF5F
:2008B90043AA10E5AA30E5FB859C452275D98175DAC275DCC243D8402243E608D2AF223087
:2008D900DF0E8536E98537F9C2DF05380539800353D8C032753243753300753440753102DA
:2008F9007535027582C012051BAF437E00AC447D00EC4EF53AED4FF53B22753243753300E4
:200919007534407531027535027582E012051BAF437E00AC447D00EC4EF582ED4FF5832214
:2009390074FC2539502412091385823E85833F754351752D43752E00752F40752C007530E7
:20095900017582E01204A1753900C3E53E941EE53F94004003020A8C30B703020A8CE5604F
:200979006003020A8C74FF255F501B7400C0E07419C0E07480C0E0120F3715811581158112
:20099900756001020A8C855D55855E56855B5D855C5E74FFC3955DF5EC74FF955EF5FC057F
:2009B9005F7418C0E07419C0E07480C0E0120F3715811581158112016D858242754600E54F
:2009D90046704B746CB542028005744CB5420B854B4D854C4E75460180E57472B542028021
:2009F900057452B5420B85494D854A4E75460180CE7456C0E07419C0E07480C0E0120F374C
:200A190015811581158112016D85824280B174FFC3954DF5EA74FF954EF5FA7480C0E074BD
:200A390019C0E07480C0E0120F3715811581158185555D85565E74FFC3955DF5EC74FF95B5
:200A59005EF5FC12016D754351752D43752E00752F40752C007530017582E01204A17539B6
:200A79000074FC253950FA12091385823E85833F75390020B712E560700EE5592406F55D77
:200A9900E55A34FFF55E8006855B5D855C5E74FFC3955DF5EC74FF955EF5FC2274FE253825
:200AB900500E0540E4B5400205411208ED753800E53CC3953AF54FE53D953BF550C3740838
:200AD900954F74878550F063F08095F0500EE54F24F0F54FE55034F1F5508019C3E54F9454
:200AF900F8E55064809478500C7410254FF54F740E3550F550854F82855083120EA0AC8240
:200B1900AD83AEF0FFC051C052C053C0548C828D838EF0EF120BDCAC82AD83AEF0FFE581C0
:200B390024FCF581854782854883C007C006C005C004120EADA882A983AAF0FBD004D005F1
:200B5900D006D007C000C001C002C0038C828D838EF0EF120E13AC82AD83AEF0FFE5812486
:200B7900FCF5818C828D838EF0EF120EB985825585835620B732E560702EC3E5499555E520
:200B99004A9556500885494D854A4E8021C3E555954BE556954C5008854B4D854C4E800EBB
:200BB90085554D85564E800685474D85484EAF4D74FFC39FF5EA74FFC3954D74FF954EFFF5
:030BD9008FFA226E
:201751000A54797065206469676974733B20656E6420772F230020202020202563256325D8
:2017710063256325630025630043617220636F6E74726F6C206D656E753A0A0D0043686FE6
:201791006F7365206120646573697265642068656164696E672066726F6D20746865206FBC
:2017B1007074696F6E732062656C6F773A0A0D003129203020646567726565730A0D3229D6
:2017D10020393020646567726565730A0D33292031383020646567726565730A0D342920B1
:2017F10032373020646567726565730A0D00496E76616C696420696E7075743A25752C20F2
:20181100506C6561736520656E7465722076616C696420696E7075742E0A0D004E6F772006
:201831007573652074686520706F74656E74696F6D6574657220746F2073656C6563742077
:2018510061207374656572696E67206761696E2E0A0D005377697463682074686520736CBF
:2018710069646520737769746368207768656E2066696E69736865642E0A0D004375727256
:20189100656E742076616C75652A3130303A2025640A0D0046696E616C206761696E2A31FA
:2018B10030303A25640A0D0048656164696E673A2025750A52616E6765722056616C7565B3
:2018D1003A202575000A0D48656164696E673A202575090952616E6765722056616C7565BA
:2018F1003A202575096450573A2025640A0D005365636F6E64206F62737461636C65206686
:201911006F756E640A0D004F62737461636C652064657465637465642E20507265737320DF
:20193100277227206F7220276C2720746F2073746565722061726F756E64206F62737461D3
:20195100636C652E00496E76616C696420696E7075742E20506C6561736520656E74657217
:2019710020276C27206F72202772272E0A0D000A0D507265737320737061636520776865A2
:201991006E20746865206361722069732061726F756E6420746865206F62737461636C659E
:0319B1000A0D001C
:200BDC00120C7FBC0003020EE5EF60FA30D502B2D1E583B4FF03020EFBE582B4FF03020E7F
:200BFC00FB258340072482400B020EE52483145003020EFBF582EA8DF0A4A8F0EA8EF0A4CA
:200C1C0028F8E435F0F9EB8DF0A428E935F0F9E433CA8FF0A429F9EA35F0FAEBF88EF0A427
:200C3C0029F9EA35F0FAE433FBEC8DF0A429F9EA35F0FAE43BFBE88FF0A42AFAEB35F0FBCF
:200C5C00E433CCFD8EF0A42AFAEB35F0FBE43CFCED8FF0A42BFBEC35F0FC20E703120CAD13
:030C7C00020EC4A1
:200C7F00AA82AB83A2F73392D1F5826002D2F7ACF0E58124F9F8E6FD08E6FE0886F008E6D8
:0E0C9F00A2F73392D5F5836002D2F7AFF022B0
:06008000E478FFF6D8FD54
:200CAD007804EC7011E58224F8500AF582E4C9CACBFCD8EF22EC7820058220E713D5820146
:130CCD0022C3E933F9EA33FAEB33FBEC33FCD8EA15822254
:20005E007900E94400601B7A009019BF785175AF00E493F2A308B8000205AFD9F4DAF27502
:02007E00AFFFD2
:1B0CE00020F71130F6138883A88220F509F6A8837583002280FEF280F5F02213
:1D0CFB00E5828511F0A4C582C0F08512F0A4D0F025F0C5838511F0A42583F58322A0
:200D1800C00F85810FC082058105810581E50F24FBF8A90F0909E6F70809E6F70809E6F775
:200D3800A80F080886820886830886F012160FFAA312160FFBA312160FFF74012AFCE43BA4
:200D5800FD8F06A80F080886820886830886F0EC120CE0A3ED120CE0A3EE120CE08A828BED
:200D7800838FF0A80F08E6120CE0850F81D00F2285820C85830D85F00E756D0C756E0075AF
:200D98006F40850870850971850A72850B73900D1812100EAE82AF83AB0CAC0DAD0E8B820D
:200DB8008C838DF0E4120CE08E828F8322C00F85810FE50F24F8FF8F73E50F24FBFF8F6D66
:200DD800756E00756F40E50F24F8F88670088671088672900D1812100EAE82AF83E50F2498
:1B0DF800FBF886030886040886058B828C838DF0E4120CE08E828F83D00F22A1
:200086007800E84400600A790175AF00E4F309D8FC7850E84400600C7901900001E4F0A318
:0400A600D8FCD9FAAF
:200E1300120C7F7900E583B58202800D500312151AE583C39582121676E5D0C465D020E158
:200E330017EA2DFAEB3EFBEC3FFC50097401121676EC4480FC020EC4C3EA9DFAEB9EFBEC8C
:190E53009FFC500FC3E499F9E49AFAE49BFBE49CFCB2D1120CAD020EC4C3
:200E6C001216B9700AE582458345F0700122E430D112F4700BE5F0F47006E58330E70122CD
:140E8C0090800022700AE5F07006E58320E70122907FFF2299
:0D0EA000AC83AB827A007900748E02163F9D
:0C0EAD00E4AC83AB82FAF9748E02166C80
:0B0EB9007F8E12172CF58385F082223B
:200EC400B98003EA13B34010EA2401FAE43BFBE43CFC50047C800582BC000EBB000BBA0072
:200EE40008E4F5F0F583F58222A2D1E582138CF092F78B838A8222E4F583F58275F080F432
:0F0F0400A2D11322E4F583F58275F0C0747F2229
:200F1300C00F85810F120163D00F2285827085837185F072E4F56DF56EF56F851073900FD8
:200F33001302100EC00F85810FE50F24FBFF8F73E4F56DF56EF56FE50F24FBF886700886D7
:0D0F530071088672900F1312100ED00F223D
:200F6000AF82C063C064C065120F6D8007C061C0628F8222158115811581056BE4B56B0211
:200F8000056C22AF8274302FFF24C6500A74072FFF3000034307208F82020F60E582FFC485
:200FA000540FF582C007120F83D007740F5FF582020F83858211856612856713856814858E
:200FC0006915AA6A751620EA2AFAE515235401FF8A064EFAE5122512F512E51333F513E530
:200FE0001433F514E51533F515C3EA95114008EAC39511FA431201E51614FF8F1670C885BC
:2010000012668513678514688515698A6A22858261858362856D63856E64856F65E4F56B24
:20102000F56CAD70AE71AF728D828E838FF012160FFC74012DF570E43EF5718F72ECFF7035
:2010400003021513BF2502800302150BC201C202C203C204C205C206C207C2087574007546
:2010600075007576FFAA70AB71AE728A828B838EF012160FFFA3AA82AB838A708B718E72FA
:20108000BF25078F82120F608098BF3000402DEF24C6402874FFB57612E57575F00AA42FD2
:2010A000FC24D0F57570C4D20280C0E57675F00AA4FC8F05ED2C24D0F57680AFBF2E0A747E
:2010C000FFB576A775760080A2BF6100400CEF248540075307DFD2008002C200BF20028037
:2010E0006DBF2B028063BF2D028059BF42028063BF43028068BF44030212B1BF4603021234
:20110000C7BF480302106BBF49030212B1BF4A0302106BBF4C028040BF4F030212B8BF506F
:2011200003021246BF5302805ABF540302106BBF55030212BDBF58030212C2BF5A030210CB
:201140006B0212CBD20102106BD20302106BD20402106BD20602106BD20702106B30060A65
:20116000E57314F9897387078011E57324FEFE8E738E018705098706198D078F82120F6086
:201180000212D4E57324FDFE8E738E01870409870509870619198C668D678E688C828D837E
:2011A0008EF0121534AD82AE8374FFB576028D76200126C3ED95755020E575C39DF575AE10
:2011C000758E041EEC6010758220C006C005120F60D005D00680EA8E75AE768566828567D6
:2011E000838568F012160FFCFF602F8E041EC374808CF063F08095F050208F82C006C00587
:20120000120F60D005D006AA66AB67AC680ABA00010B8A668B678C6880C12001030212D479
:20122000C3ED957540030212D4E575C39DF575AE758E041EEC70030212D2758220C006129E
:201240000F60D00680EBE57324FDFC8C738C01870209870309870419198A668B678C68AC79
:2012600068BC800040047F438014BC600040047F50800BBC400040047F4980027F588F8204
:20128000C007120F6075823A120F60758230120F60758278120F60D007BF4902800BBF5041
:2012A000028006856782120F9C856682120F9C8023D20575740A801C757408801775740ACD
:2012C0008012757410800DD20880098F82120F6080028E7530085CE57324FCFE8E738E01E2
:2012E00087020987030987040987061919198A668B678C688E697566B4756719756880852A
:20130000667885677985687A74012578FAE43579FCAE7A8A668C678E688578828579838503
:201320007AF012160FFEFF70030210228F82120F6080CCE574700302102275771C30062D1F
:20134000E57314F9897387048C027B007C007E008A668B678C688E69200566AA667B007C3F
:20136000007E008A668B678C688E698054300721E57324FCFE8E738E018702098703098744
:20138000040987061919198A668B678C688E698030E57324FEFE8E738E01870409870619A9
:2013A000EE3395E0FBFA8C668E678B688A69200510AA66AB677C007E008A668B678C688E20
:2013C00069300522E56930E71BC3E49566FAE49567FBE49568FCE49569FE8A668B678C68C3
:2013E0008E698002C205D209A9777E00756A00857482C006C001120FB3D001D00620090BA4
:20140000E56AC4FCE7FB4CF7198002A76A0EB209E56645674568456970D289778E05E575A2
:201420007003757501200224200121ED04FEAC75C3EE9C5015758220C006C005C004120F7D
:2014400060D004D005D0061C80E68C7530050E75822DC005120F60D00515758023ED60200E
:2014600030030E75822BC005120F60D0051575800F30040C758220C005120F60D0051575D9
:20148000200126AE758E041EC3ED9C502F3002067B307C0080047B207C008B82C006C005D5
:2014A000120F60D005D00680DCC3ED95755008E575C39DF575800775750080028E75A97758
:2014C0008D068E051EED6026B20920090A09E7C4540FFD8D6A80078705740F5DF56A856A1B
:2014E00082C006C001120F83D001D00680D4200103021022AE758E051EED7003021022750F
:1A1500008220C006120F60D00680EB8F82120F60021022856B82856C8322D9
:0B19B4003C4E4F20464C4F41543E007B
:1A151A00E582C583F582A2D133A2D592D11392D5ECCFFCEBCEFBEACDFA2259
:18153400AA82AB8312160F6003A380F8C3E5829AF582E5839BF58322B8
:20154C00120C7F30D502B2D1BF0009BC0003020F08020EFBBC0003020EE5E583B4FF0BE5EE
:20156C0082B4FF03020F08020EE5E582B4FF03020EFBC395835007247F400B020EE5248038
:20158C00145003020EFBF582C3ED9AEE9BEF9C40111582C3EA33F9EB33FAEC33FBE433FCF2
:2015AC008005E4CCCBCAF9C08275F019C3E99DEA9EEB9FEC9400D5F002802D400EE99DF980
:2015CC00EA9EFAEB9FFBEC9400FCC3B3E833F8E58233F582E58333F583C3E933F9EA33FAE0
:2015EC00EB33FBEC33FC80C4B3E4F938FAE43582FBE43583FCD082500405827C80120CAD83
:03160C00020EDCEF
:0D00510075817A121714E582600302004EDB
:1C160F0020F71430F6148883A88220F507E6A88375830022E280F7E49322E022EA
:0B162B00E4AC82FBFAF9748602166C36
:20163600FCABF0AA83A982749EF582C2D1EC30E716D2D1E9F42401F9EAF43400FAEBF434B3
:0D16560000FBECF43400FC120CAD020EC4DD
:13166300FCABF0AA83A982749EC2D1F582120CAD020EC4CA
:201676006040F82582500274FFF582E824F8501ECCCBCAF9E4CC24F85014CBCAF9E4CB247C
:20169600F8500BCAF9E4CA24F8500379002224086010F8C3EC13FCEB13FBEA13FAE913F92F
:0316B600D8F12246
:2016B900121718C3749E95824039790012167630D126E9F42401F582EAF43400F583EBF44B
:2016D9003400F5F0ECF43400700AE582458345F0700122E430E70F22EC20E71489828A8308
:1B16F9008BF02230D10AE4F582F583F5F074802274FFF582F583F5F0747F2204
:0417140075820022B8
:12171800AA82AB83A2F73392D1F5826002D2F7ACF022D6
:20172A007F9E12171830D103020EE5C3EF9582500974FFF5F0F583F582227900121676891D
:07174A00828A838BF0EC2280
:00000001FF
