:040000000200513277
:01000B0032C2
:0100130032BA
:01001B0032B2
:0100230032AA
:01002B0032A2
:01003300329A
:01003B003292
:01004300328A
:03004B0002099C0B
:2000AA00753600753700753800753900E4F53AF53BF5417542CC75430AF544F545F546F523
:2000CA0047F548F549F54AF54BF54CF54DF54EF54FF550F551F552755340F554F555755693
:0700EA00CC75570A02004E1D
:03004E000205F3B5
:2000F10075B1677E007F01EE24FFFCEF34FFFD8C068D07EC4D70F0E5B130E7FB75B2882200
:20011100759850758920758DDCD28E438E10438780D29943A4012275FFDE75FFAD1200F1FF
:2001310012011143E10443E34022AF8210990280FB8F992210980280FB85998212013B85A1
:200151009982222098057582FF800BC29885998212013B85998222C00F85810FE50F24FB12
:20017100F886820886830886F0121768E5828583F045F070028062E50F24FBFF8F0BE50FC6
:2001910024FBF8860808860908860A90000175F000120F9F90000175F000121768AE827F8E
:2001B10000C3EF9E501FEF2401F582E43400F583E0FDBD0A0DEF2401F582E43400F5837414
:2001D1000DF00F80DC752D01752E00752F00752C008E307582C6120479D00F227527007400
:2001F100C0252740177532277533007534407531007535017582C61204F380E375280C7594
:200211002D28752E00752F40752C007530017582C61204792275322A753300753440753134
:20023100017535027582C61204F374FFB52A05758200805F7F008F068EF005F07C017D008C
:200251008006EC2CFCED33FDD5F0F7AA2A7B00EA5204EB5205EC4D600774312FF5828033AB
:200271000E8E07BE080040D0E52B30E0057582398021E52B30E10575822A8017E52B30E2FE
:2002910005758230800DE52B30E30575822380037582FF22AF82E4FDFEEF701DC006C005A0
:2002B10074C5C0E07419C0E07480C0E0120168158115811581D005D006C006C0057408C0E4
:2002D100E0E4C0E07408C0E0E4C0E07408C0E0E4C0E07408C0E0E4C0E07408C0E0E4C0E029
:2002F10074DBC0E07419C0E07480C0E0120168E58124F3F58190A12075F007E4120414D034
:2003110005D0067F00C007C006C005120226AC82D005D006D0078C03BCFF028003BB2A176B
:20033100902710E4F5F0C007C006C005120414D005D006D00780CEBB232AC006C005120229
:2003510026AC82D005D006BC2313902710E4F5F0C006C005120414D005D00680DD8D828EB1
:20037100830204138B027C00C007C006C005C004C003C002C002C00474EBC0E07419C0E07A
:200391007480C0E0120168E58124FBF581D002D003D004D005D0068D118E1290000AC00482
:2003B100C003C002120F12A882A983D002D003D004D007EA28F8EC39F9E824D0FDE934FFB1
:2003D100FEC007C006C005C003120226AC82D003D005D006D007ECB5031B902710E4F5F0ED
:2003F100C007C006C005C003120414D003D005D006D00780CC0FBF050050030203168D82BC
:200411008E8322AC82AD83AEF0FF780079007A007B00C3E89CE99DEA9EEB9F500F08B800B9
:200431000909B900050ABA00E90B80E62220C7FDD2C530C3FDC2C5C2C3228582C210C30264
:2004510080FB228582C2D2C410C30280FB2230C3FD85C282C2C32230C3FDAFC2C2C3D2C441
:2004710010C30280FB8F8222AF82C2AFC00712043ED00774FE5FF58212044B852C82120462
:200491004B7F00AD307E001DBDFF011E8F037C00C3EB9DEC64808EF063F08095F0501FEFD1
:2004B100252DFCE4352EFDAE2F8C828D838EF0121843F582C00712044BD0070F80C5AE300B
:2004D1007F001EBEFF011FEE252DFEEF352EFFAD2F8E828F838DF0121843F582120454D267
:2004F100AF22AF82C2AFC00712043ED00774FE5FF582C00712044B85318212045412043E20
:20051100D00774014FF58212044B7F00AD357E001DBDFF011E8F037C00C3EB9DEC64808EC9
:20053100F063F08095F0502ED2C2EF2532FCE43533FDAE34C007C006C005C00412045FABAD
:2005510082D004D005D006D0078C828D838EF0EB120EEA0F80B6C2C2AE357F001EBEFF011A
:200571001FEE2532FEEF3533FFAD34C007C006C005120468AC82D005D006D0078E828F832F
:200591008DF0EC120EEAD2AF22752223752300752310752400752D22752E00752F40752CB5
:2005B1002075300175823012047922752204752D22752E00752F40752C2375300175823A0B
:2005D10012047975226B752300752400752D22752E00752F40752C2075300175823A12044F
:2005F100792212012875822012013B12095612096D1209631209891209671209961205BC8E
:2006110074EEC0E07419C0E07480C0E012116B158115811581740EC0E0741AC0E07480C0B2
:20063100E012116B15811581158112014585823C7431B53C0575440180177432B53C0575E1
:20065100440A800D7433B53C057544198003754432742BC0E0741AC0E07480C0E012116B42
:200671001581158115817445C0E0741AC0E07480C0E012116B1581158115811201458582DD
:200691003C7431B53C0E7550CD7551CC75524C75533E802E7432B53C0DE4F550F5517552A4
:2006B1004075533F801C7433B53C0CE4F550F551F552755340800BE4F550F551755220758E
:2006D100534175EA3375FAF575EC3375FCF575370074CE253750FA7463C0E0741AC0E074D8
:2006F10080C0E012116B158115811581753700E53724CD50FA1209CD7483C0E0741AC0E0C9
:200711007480C0E012116B15811581158174AAC0E0741AC0E07480C0E012116B15811581AA
:200731001581D2B4753800E4F537F536F53AF53BC050C051C052C05390000075F0C874428C
:20075100120DE6AC82AD83AEF0FFE58124FCF5818C828D838EF0EF1210EDAE82AF83AC44A0
:200771007D00C006C007C004C00574E6C0E0741AC0E07480C0E012116BE58124F9F581741E
:20079100F1C0E0741AC0E07480C0E012116B158115811581E5397005D2B4753800E5396061
:2007B10014E555601074E72538500AD2B47555007538008016E5396012E555700E74CE2516
:2007D100385008C2B475550175380074F62537400302086D12097785418212185FAC82ADCC
:2007F10083AEF0FFE4C0E0C0E07480C0E07443C0E08C828D838EF0EF121780AC82AD83AE79
:20081100F0FFE58124FCF581C004C005C006C00790000075F0487442120DE6AC82AD83AEC2
:20083100F0FFE58124FCF581E4C0E0C0E07480C0E0743FC0E08C828D838EF0EF12102AAC2E
:2008510082AD83AEF0FFE58124FCF5818C828D838EF0EF12186A858245753700C3E53A94AF
:2008710019E53B9400500302094F1201EDC04AC04BC048C0497435C0E0741BC0E07480C09B
:20089100E0120168E58124F9F581AE457F00AC447D00C006C007C004C005744CC0E0741B0F
:2008B100C0E07480C0E0120168E58124F9F581C050C051C052C05390000075F0C8744212B4
:2008D1000DE6AC82AD83AEF0FFE58124FCF5818C828D838EF0EF1210EDAE82AF83C006C09B
:2008F100077470C0E0741BC0E07480C0E0120168E58124FBF581AE457F00E54AC3954EFCE0
:20091100E54B954FFDE548C3954CFAE549954DFBC006C007C042C043C056C057C004C00597
:20093100C002C0037484C0E0741BC0E07480C0E012116BE58124F3F581E4F53AF53B120AE6
:20095100F50207A52275A50543908075A71043B0082275E11F2275CF93D2C62275D1034352
:20097100AB0175AA802275AC0753AADF43AA10E5AA30E5FB859C412275D98175DAC275DCA4
:20099100C243D8402243E608D2AF22C0E0C0D010DF028020053605370538053AE4B53A02AA
:2009B100053B74FF2536500675540175360075E9FF75F96F53D8C0D0D0D0E032E4FEFFF5D0
:2009D10058F559F536F554E55460FC7A007B0075323D75330075344075312775350175827E
:2009F1003AC007C006C003C0021204F3D002D003D006D0077403553DFDBD03028038740348
:200A1100553DFDBD030280EC755400E55460FC75323D7533007534407531277535017582C6
:200A31003AC007C006C003C0021204F3D002D003D006D00780BE755400E55460FC75323D7E
:200A51007533007534407531A875350475823AC007C006C003C0021204F3D002D003D00631
:200A7100D007AD3E7C00EDC4CCC4540F6CCC540FCC6CCC30E30244F0FDEC2EFEED3FFFADAE
:200A9100407C00EDC4CCC4540F6CCC540FCC6CCC30E30244F0FDEC2558F558ED3559F55981
:200AB1000ABA00010BC3EA9440EB940050030209E07511407512008E828F831218B2AE829C
:200AD100AF83751140751200855882855983C007C0061218B285824E85834FD006D0078E76
:200AF1004C8F4D22E4F55AF55BF55CF55D7AFF7BFF8A5E8B5F155E74FFB55E02155FE55EFE
:200B1100455F70F1FCFD75323D75330075344075312775350175823AC005C0041204F3D046
:200B310004D0057403553DFFBF030280397403553DFFBF030280EC7AFF7BFF8A068B071EDB
:200B5100BEFF011FEE4F70F775323DF53375344075312775350175823AC005C0041204F3D3
:200B7100D004D00580BD7EFF7FFF1EBEFF011FEE4F70F775323DF5337534407531A87535F7
:200B91000475823AC005C0041204F3D004D005AF3E7E00EFC4CEC4540F6ECE540FCE6ECE18
:200BB10030E30244F0FFEE255AF55AEF355BF55BAF407E00EFC4CEC4540F6ECE540FCE6E61
:200BD100CE30E30244F0FFEE255CF55CEF355DF55D0CBC00010DC3EC9404ED940050030268
:200BF1000B17855A48E55BA2E713C54813C548A2E713C54813C548F549855C4AE55DA2E795
:200C110013C54A13C54AA2E713C54A13C54AF54B854A11854B128548828549831218B21222
:200C31000F05AE82AF83C3E5469EE54764808FF063F08095F05018854A11854B1285488241
:200C51008549831218B2120F05858246858347120C67120D0D22E548C3954CF582E54995B6
:200C71004DF5831210ACAC82AD83AEF0FFC004C005C006C0078550828551838552F0E55310
:200C9100120DE6AC82AD83AEF0FFE58124FCF581C004C005C006C00790C00075F02C744597
:200CB100120DDBAC82AD83AEF0FFE58124FCF5818C828D838EF0EF1210B985824285834338
:200CD100C374929542748D8543F063F08095F0500875429275430D8013C3E5429450E54363
:200CF100648094895006754250754309AE42AF4374FFC39EF5EA74FF9FF5FA22E54AC39585
:200D11004EF511E54B954FF512AE457F008E828F83120F12E5828583F024CCF556740A353F
:200D3100F0F557E548C3954CF582E549954DF583120F05858211858312AE447F008E828F2E
:200D510083120F12AE82AF83E556C39EF556E5579FF557C374CC9556748A8557F063F080D1
:200D710095F050067556CC75570AC374AE9556748D8557F063F08095F050087556AE755788
:200D91000D8013C3E55694EBE5576480948750067556EB755707C3E5569468E5576480945D
:200DB1008A5005753901800375390020B30FAE56AF5774FFC39EF5EC74FF9FF5FC30B309D3
:0A0DD10075390075EC3375FCF5224E
:2019C5000A54797065206469676974733B20656E6420772F23002020202020256325632562
:2019E5006325632563002563000D53656C65637420736964652D73696465207069746368AB
:201A0500206761696E3A0A0D00312920312020203229203130202020332920323520202027
:201A25003429203530000A0D53656C656374207374656572696E67206761696E3A0A0D00B7
:201A45003129202E322020203229202E3735202020332920322020203429203130000A0DCF
:201A6500506C61636520636172206F6E206120666C617420737572666163650A0D000A0DAA
:201A8500596F75206D6179206E6F7720706C61636520636172206F6E2074686520736C6FE2
:201AA50070650A0D000A0D46726F6E742D4261636B2070697463682063616E206265207373
:201AC500656C6563746564207573696E672074686520706F74656E74696F6D657465722EA7
:201AE500000A0D25752C2025750A0D000A0D5820616363656C2E2C205920616363656C2E93
:201B05002C2058206761696E2C2059206761696E2C205374656572696E67206761696E2A83
:201B25003130302C204D6F746F722050570A0D00782D616363656C3A2025750A792D6163CF
:201B450063656C3A2575000A0D447269766520782D6761696E3A2025750A447269766520EB
:201B6500792D6761696E3A202575000A0D5374656572696E67206761696E3A2025750025F7
:101B8500642C25642C25752C25752C25750A0D00CE
:0B0DDB00A8811818C6B2E7C602102A53
:200DE600120E89BC0003021119EF60FA30D502B2D1E583B4FF0302112FE582B4FF030211F6
:200E06002F258340072482400B021119248314500302112FF582EA8DF0A4A8F0EA8EF0A41B
:200E260028F8E435F0F9EB8DF0A428E935F0F9E433CA8FF0A429F9EA35F0FAEBF88EF0A41B
:200E460029F9EA35F0FAE433FBEC8DF0A429F9EA35F0FAE43BFBE88FF0A42AFAEB35F0FBC3
:200E6600E433CCFD8EF0A42AFAEB35F0FBE43CFCED8FF0A42BFBEC35F0FC20E703120EB7FB
:030E86000210F85F
:200E8900AA82AB83A2F73392D1F5826002D2F7ACF0E58124F9F8E6FD08E6FE0886F008E6CC
:0E0EA900A2F73392D5F5836002D2F7AFF022A4
:06008000E478FFF6D8FD54
:200EB7007804EC7011E58224F8500AF582E4C9CACBFCD8EF22EC7820058220E713D582013A
:130ED70022C3E933F9EA33FAEB33FBEC33FCD8EA15822248
:20005E007900E94400601B7A00901BA0785175AF00E493F2A308B8000205AFD9F4DAF2751F
:02007E00AFFFD2
:1B0EEA0020F71130F6138883A88220F509F6A8837583002280FEF280F5F02207
:0D0F0500E58330E7076382FF6383FFA322CB
:1D0F1200E5828511F0A4C582C0F08512F0A4D0F025F0C5838511F0A42583F5832286
:200F2F00C00F85810FC082058105810581E50F24FBF8A90F0909E6F70809E6F70809E6F75C
:200F4F00A80F080886820886830886F0121843FAA3121843FBA3121843FF74012AFCE43BE9
:200F6F00FD8F06A80F080886820886830886F0EC120EEAA3ED120EEAA3EE120EEA8A828BB0
:200F8F00838FF0A80F08E6120EEA850F81D00F2285820C85830D85F00E756C0C756D00758C
:200FAF006E4085086F850970850A71850B72900F2F121242AE82AF83AB0CAC0DAD0E8B82AA
:200FCF008C838DF0E4120EEA8E828F8322C00F85810FE50F24F8FF8F72E50F24FBFF8F6C43
:200FEF00756D00756E40E50F24F8F8866F088670088671900F2F121242AE82AF83E50F2435
:1B100F00FBF886030886040886058B828C838DF0E4120EEA8E828F83D00F227B
:200086007800E84400600A790175AF00E4F309D8FC7850E84400600C7901900001E4F0A318
:0400A600D8FCD9FAAF
:20102A00120E897900E583B58202800D500312174EE583C395821218EAE5D0C465D020E187
:20104A0017EA2DFAEB3EFBEC3FFC500974011218EAEC4480FC0210F8C3EA9DFAEB9EFBECC7
:19106A009FFC500FC3E499F9E49AFAE49BFBE49CFCB2D1120EB70210F868
:201083007A10E4FBFCE58225E0F582E58333F583EB33FBEC33FCEB9511F5F0EC951240066F
:0910A300FCABF0438201DADD220E
:0D10AC00AC83AB827A007900748E02187B51
:2010B90012192D700AE582458345F0700122E430D112F4700BE5F0F47006E58330E7012207
:1410D90090800022700AE5F07006E58320E70122907FFF224A
:0B10ED007F8E1219A0F58385F082228F
:2010F800B98003EA13B34010EA2401FAE43BFBE43CFC50047C800582BC000EBB000BBA003C
:2011180008E4F5F0F583F58222A2D1E582138CF092F78B838A8222E4F583F58275F080F4FB
:0F113800A2D11322E4F583F58275F0C0747F22F3
:20114700C00F85810F12013BD00F2285826F85837085F071E4F56CF56DF56E8510729011CF
:2011670047021242C00F85810FE50F24FBFF8F72E4F56CF56DF56EE50F24FBF8866F08863C
:0D11870070088671901147121242D00F229D
:20119400AF82C062C063C0641211A18007C060C0618F8222158115811581056AE4B56A02AC
:2011B400056B22AF8274302FFF24C6500A74072FFF3000034307208F82021194E582FFC41A
:2011D400540FF582C0071211B7D007740F5FF5820211B785821185651285661385671485EF
:2011F4006815AA69751620EA2AFAE515235401FF8A064EFAE5122512F512E51333F513E5FC
:201214001433F514E51533F515C3EA95114008EAC39511FA431201E51614FF8F1670C88585
:2012340012658513668514678515688A6922858260858361856C62856D63856E64E4F56AFC
:20125400F56BAD6FAE70AF718D828E838FF0121843FC74012DF56FE43EF5708F71ECFF70D0
:2012740003021747BF2502800302173FC201C202C203C204C205C206C207C20875730075A5
:2012940074007575FFAA6FAB70AE718A828B838EF0121843FFA3AA82AB838A6F8B708E7196
:2012B400BF25078F821211948098BF3000402DEF24C6402874FFB57512E57475F00AA42F68
:2012D400FC24D0F57470C4D20280C0E57575F00AA4FC8F05ED2C24D0F57580AFBF2E0A744B
:2012F400FFB575A775750080A2BF6100400CEF248540075307DFD2008002C200BF20028003
:201314006DBF2B028063BF2D028059BF42028063BF43028068BF44030214E5BF46030214C5
:20133400FBBF480302129FBF49030214E5BF4A0302129FBF4C028040BF4F030214ECBF502D
:201354000302147ABF5302805ABF540302129FBF55030214F1BF58030214F6BF5A030212BB
:201374009F0214FFD20102129FD20302129FD20402129FD20602129FD20702129F30060AB7
:20139400E57214F9897287078011E57224FEFE8E728E018705098706198D078F821211941E
:2013B400021508E57224FDFE8E728E01870409870509870619198C658D668E678C828D8316
:2013D4008EF0121768AD82AE8374FFB575028D75200126C3ED95745020E574C39DF574AEA9
:2013F400748E041EEC6010758220C006C005121194D005D00680EA8E74AE7585658285666F
:20141400838567F0121843FCFF602F8E041EC374808CF063F08095F050208F82C006C0051B
:20143400121194D005D006AA65AB66AC670ABA00010B8A658B668C6780C1200103021508DC
:20145400C3ED95744003021508E574C39DF574AE748E041EEC7003021506758220C00612FE
:201474001194D00680EBE57224FDFC8C728C01870209870309870419198A658B668C67AC12
:2014940067BC800040047F438014BC600040047F50800BBC400040047F4980027F588F82CF
:2014B400C00712119475823A121194758230121194758278121194D007BF4902800BBF5033
:2014D4000280068566821211D08565821211D08023D20575730A801C757308801775730A30
:2014F4008012757310800DD20880098F8212119480028E7430085CE57224FCFE8E728E017A
:2015140087020987030987040987061919198A658B668C678E6875659575661B7567808517
:20153400657785667885677974012577FAE43578FCAE798A658C668E6785778285788385DB
:2015540079F0121843FEFF70030212568F8212119480CCE573700302125675761C30062D14
:20157400E57214F9897287048C027B007C007E008A658B668C678E68200566AA657B007C10
:20159400007E008A658B668C678E688054300721E57224FCFE8E728E018702098703098714
:2015B400040987061919198A658B668C678E688030E57224FEFE8E728E0187040987061979
:2015D400EE3395E0FBFA8C658E668B678A68200510AA65AB667C007E008A658B668C678EF3
:2015F40068300522E56830E71BC3E49565FAE49566FBE49567FCE49568FE8A658B668C6796
:201614008E688002C205D209A9767E00756900857382C006C0011211E7D001D00620090B3B
:20163400E569C4FCE7FB4CF7198002A7690EB209E56545664567456870D289768E05E57474
:201654007003757401200224200121ED04FEAC74C3EE9C5015758220C006C005C004121147
:2016740094D004D005D0061C80E68C7430050E75822DC005121194D00515748023ED602070
:2016940030030E75822BC005121194D0051574800F30040C758220C005121194D005157439
:2016B400200126AE748E041EC3ED9C502F3002067B307C0080047B207C008B82C006C005A0
:2016D400121194D005D00680DCC3ED95745008E574C39DF574800775740080028E74A976F2
:2016F4008D068E051EED6026B20920090A09E7C4540FFD8D6980078705740F5DF5698569E8
:2017140082C006C0011211B7D001D00680D4200103021256AE748E051EED70030212567537
:1A1734008220C006121194D00680EB8F82121194021256856A82856B832203
:0B1B95003C4E4F20464C4F41543E0098
:1A174E00E582C583F582A2D133A2D592D11392D5ECCFFCEBCEFBEACDFA2223
:18176800AA82AB831218436003A380F8C3E5829AF582E5839BF583224C
:20178000120E8930D502B2D1BF0009BC000302113C02112FBC0003021119E583B4FF0BE508
:2017A00082B4FF0302113C021119E582B4FF0302112FC395835007247F400B021119248027
:2017C00014500302112FF582C3ED9AEE9BEF9C40111582C3EA33F9EB33FAEC33FBE433FC85
:2017E0008005E4CCCBCAF9C08275F019C3E99DEA9EEB9FEC9400D5F002802D400EE99DF94A
:20180000EA9EFAEB9FFBEC9400FCC3B3E833F8E58233F582E58333F583C3E933F9EA33FAA9
:20182000EB33FBEC33FC80C4B3E4F938FAE43582FBE43583FCD082500405827C80120EB740
:0318400002111082
:0D005100758179121988E582600302004E66
:1C18430020F71430F6148883A88220F507E6A88375830022E280F7E49322E022B4
:0B185F00E4AC82FBFAF974860218A8C2
:08186A007F861219A0F582220D
:20187200FCABF0AA83A982749EF582C2D1EC30E716D2D1E9F42401F9EAF43400FAEBF43475
:0D18920000FBECF43400FC120EB70210F85D
:13189F00FCABF0AA83A982749EC2D1F582120EB70210F84A
:2018B200C2D5E58330E70DD2D5E4C39582F582E49583F583E51230E70DB2D5E4C39511F5BF
:1818D20011E49512F51212108330D50BE4C39582F582E49583F58322DB
:2018EA006040F82582500274FFF582E824F8501ECCCBCAF9E4CC24F85014CBCAF9E4CB2406
:20190A00F8500BCAF9E4CA24F8500379002224086010F8C3EC13FCEB13FBEA13FAE913F9B8
:03192A00D8F122CF
:20192D0012198CC3749E9582403979001218EA30D126E9F42401F582EAF43400F583EBF4E8
:20194D003400F5F0ECF43400700AE582458345F0700122E430E70F22EC20E71489828A8391
:1B196D008BF02230D10AE4F582F583F5F074802274FFF582F583F5F0747F228D
:041988007582002242
:12198C00AA82AB83A2F73392D1F5826002D2F7ACF02260
:20199E007F9E12198C30D103021119C3EF9582500974FFF5F0F583F5822279001218EA8984
:0719BE00828A838BF0EC220A
:00000001FF
