:0400000002001132B7
:03000B0002046B81
:20006A00E4F508F509F50AF50BF50CF50DF50EF50FF510F511F512F513F514F515F516F561
:01008A00175E
:0300950002000E58
:03000E0002010FDD
:2000980075B1677E007F01EE24FFFCEF34FFFD8C068D07EC4D70F0E5B130E7FB75B2882259
:2000B800759850758920758DDCD28E438E10438780D29943A4012275FFDE75FFAD120098B2
:2000D8001200B843E10443E34022AF8210990280FB8F992210980280FB8599821200E285AF
:2000F8009982222098057582FF800BC2988599821200E2859982221200CF12042E12046121
:2001180012044A1204507582201200E2745EC0E0740CC0E07480C0E012060D15811581156A
:20013800817468C0E0740CC0E07480C0E012060D1581158115811200EC85820CAE0C7F00C5
:200158008E828F831205027480C0E0740CC0E07480C0E012060D15811581158174A1C0E068
:20017800740CC0E07480C0E012060D15811581158174EDC0E0740CC0E07480C0E012060DF2
:20019800158115811581742CC0E0740DC0E07480C0E012060D1581158115811200EC750E28
:2001B80048750F05D28CE51760030203017468C0E0740DC0E07480C0E012060D1581158111
:2001D800158174A5C0E0740DC0E07480C0E012060D158115811581753C52753D01850E8251
:2001F800850F8312049DAE82AF83C006C00774DAC0E0740DC0E07480C0E012060DE58124DC
:20021800FBF581E4F510F511F508F509C374A99508E4950950F6D2B7751500120490858266
:2002380014E4F508F5091200EC85820C85080A85090B740F550CFFB51438C3E50E950AE554
:200258000F950B5008851412751300802B850A3C850B3D90000A120511850E3C850F3D1295
:20027800049DAE82AF83740AC39EF512E49FF5138006851412751300E5122510F510E51310
:200298003511F511C010C011C012C013740EC0E0740EC0E07480C0E012060DE58124F9F53F
:2002B80081E4F508F509C374A99508E4950950F6051574F825154003020233C010C0117432
:2002D80036C0E0740EC0E07480C0E012060DE58124FBF581E4F508F509C374A99508E49585
:2002F8000950F675170102015F750EA4750F02744AC0E0740EC0E07480C0E012060D15812C
:20031800158115817485C0E0740EC0E07480C0E012060D158115811581753C52753D018528
:200338000E82850F8312049DAE82AF83C006C00774C8C0E0740EC0E07480C0E012060DE5C0
:200358008124FBF581E4F510F511F508F509C374A99508E4950950F6751500120490858209
:200378001474075514FF7E00AC157D000CBC00010DC007C006C004C00574EFC0E0740EC081
:20039800E07480C0E012060DE58124F9F581E4F508F509C3E50E9508E50F950950F5E514B1
:2003B80024FC500875120A7513008005E4F512F513E5122510F510E5133511F511C010C017
:2003D80011C012C01374FCC0E0740EC0E07480C0E012060DE58124F9F581E4F508F5090587
:2003F8001574F825154003020373C010C0117422C0E0740FC0E07480C0E012060DE5812432
:20041800FBF581E4F508F509C374A99508E4950950F602015F2253A5FD53BDFD4390024391
:20043800A60853A6F843A00743A7F853A7FC43B0032243A802D2AF22438E085389F043892A
:2004580001C28CE4F58AF58C2275D10343AB0175AA8022C0E0C0D0C28D0508E4B508020502
:2004780009D0D0D0E03275AC0153AADF43AA10E5AA30E5FB859C0D221204C6753C08753DA8
:0504980000120C2422FB
:200C5E000D0A53746172740D0A00456E74657220612072616E646F6D206E756D6265723A37
:200C7E0020000D0A42494E2D4845582047616D65210D0A496E737472756374696F6E733A13
:200C9E000D0A00094D6F64653A205573652074686520736C69646520737769746368207432
:200CBE006F20707574207468652067616D6520696E746F2042696E617279206D6F646520CF
:200CDE006F7220486578206D6F64652E0D0A000953706565643A2055736520746865207054
:200CFE006F74656E74696F6D6574657220746F2073657420746865207370656564206F66C1
:200D1E00207468652067616D652E0D0A0A005072657373207468652022456E74657222205B
:200D3E0070757368627574746F6E207768656E20796F752061726520726561647920746F5A
:200D5E0020626567696E210D0A000D0A596F752077696C6C206861766520382074726965FC
:200D7E00732E0D0A55736520746865206B6579626F61726420746F20656E74657220746861
:200D9E00652048455820006E756D62657220636F6F726573706F6E64696E6720746F2074F1
:200DBE0068652042696E617279206E756D62657220646973706C617965642000696E204CD8
:200DDE0045447320617320717569636B20617320796F752063616E2E20596F75206861761B
:200DFE0065202575207365636F6E64732E0D0A000D0A506F696E747320666F7220747279E8
:200E1E003A2025752C20546F74616C2073636F72653A2025750D0A000D0A46696E616C2008
:200E3E0053636F72653A2025750D0A000D0A596F752077696C6C206861766520382074723F
:200E5E006965732E20557365207468652070757368627574746F6E7320746F20656E746599
:200E7E007220746865200062696E6172792076616C7565206F662074686520486578206480
:200E9E006967697420646973706C61796564206F6E20746865207465726D696E616C2E2080
:200EBE00596F752077696C6C200068617665202575207365636F6E647320746F20656E7408
:200EDE00657220696E207468652076616C75652E000D0A5472792025753A202578000D0A3C
:200EFE00506F696E747320666F72207472793A2025752C20546F74616C2073636F72653AB7
:160F1E00202575000D0A46696E616C2053636F72653A20257500F2
:20049D007A10E4FBFCE58225E0F582E58333F583EB33FBEC33FCEB953CF5F0EC953D40060B
:0904BD00FCABF0438201DADD2200
:0A008B00751A01E4F51BF51CF51DC4
:2004C600851A3C851B3D851C3E851D3F904E6D75F0C6744112052EAC82AD83AEF0FF743986
:2004E6002CF51A74303DF51BE43EF51CE43FF51DAC1CAD1D8C82747F5DF58322AE82AF8376
:0B0506008E1A8F1B751C00751D002253
:06004000E478FFF6D8FD94
:20001E007900E94400601B7A00900F3F780175AF00E493F2A308B8000205AFD9F4DAF2751C
:02003E00AFFF12
:1D051100E582853CF0A4C582C0F0853DF0A4D0F025F0C583853CF0A42583F5832210
:20052E00AAF0FBE582853CF0A4FCADF0E583853CF0A42DFDE435F0FEE582853DF0A42DFDEE
:20054E00E5F03EFEE433FFEA853CF0A42EFEE5F03FFFE583853DF0A42EFEE5F03FFFE58284
:20056E00853EF0A42EFEE5F03FFFEB853CF0A42FFFEA853DF0A42FFFE583853EF0A42FFF0E
:0E058E00E582853FF0A42F8EF08D838C8222B3
:20059C00E53C453D60467A01E53C25E0F53CE53D334012F53DE582953CE583953D40030A8C
:2005BC0080E6C3E53D13F53DE53C13F53CC3E582953CF5F0E583953D4005F58385F082C399
:0D05DC00E53D13F53DE53C13F53CDAE12269
:200046007800E84400600A790175AF00E4F309D8FC7800E84400600C7900900001E4F0A3A9
:04006600D8FCD9FAEF
:2005E900C01F85811F1200E2D01F2285823185833285F033E4F52EF52FF530851E34900513
:20060900E90206E4C01F85811FE51F24FBFF8F34E4F52EF52FF530E51F24FBF88631088663
:0D062900320886339005E91206E4D01F2246
:20063600AF82C024C025C0261206438007C022C0238F8222158115811581052CE4B52C0230
:20065600052D22AF8274302FFF24C6500A74072FFF3000034307208F82020636E582FFC42A
:20067600540FF582C007120659D007740F5FF58202065985823C85273D85283E85293F8538
:200696002A40AA2B754120EA2AFAE540235401FF8A064EFAE53D253DF53DE53E33F53EE589
:2006B6003F33F53FE54033F540C3EA953C4008EAC3953CFA433D01E54114FF8F4170C8856C
:2006D6003D27853E28853F2985402A8A2B22858222858323852E24852F25853026E4F52C1E
:2006F600F52DAD31AE32AF338D828E838FF0120C08FC74012DF531E43EF5328F33ECFF7033
:2007160003020BE9BF25028003020BE1C201C202C203C204C205C206C207C2087535007520
:2007360036007537FFAA31AB32AE338A828B838EF0120C08FFA3AA82AB838A318B328E3336
:20075600BF25078F821206368098BF3000402DEF24C6402874FFB53712E53675F00AA42FB6
:20077600FC24D0F53670C4D20280C0E53775F00AA4FC8F05ED2C24D0F53780AFBF2E0A746E
:20079600FFB537A775370080A2BF6100400CEF248540075307DFD2008002C200BF200280E8
:2007B6006DBF2B028063BF2D028059BF42028063BF43028068BF4403020987BF46030209A3
:2007D6009DBF4803020741BF4903020987BF4A03020741BF4C028040BF4F0302098EBF5099
:2007F6000302091CBF5302805ABF5403020741BF5503020993BF5803020998BF5A030207D4
:20081600410209A1D201020741D203020741D204020741D206020741D20702074130060AF4
:20083600E53414F9893487078011E53424FEFE8E348E018705098706198D078F82120636E8
:200856000209AAE53424FDFE8E348E01870409870509870619198C278D288E298C828D831F
:200876008EF0120BF0AD82AE8374FFB537028D37200126C3ED95365020E536C39DF536AECC
:20089600368E041EEC6010758220C006C005120636D005D00680EA8E36AE37852782852877
:2008B600838529F0120C08FCFF602F8E041EC374808CF063F08095F050208F82C006C0050A
:2008D600120636D005D006AA27AB28AC290ABA00010B8A278B288C2980C12001030209AA8D
:2008F600C3ED953640030209AAE536C39DF536AE368E041EEC70030209A8758220C0061234
:200916000636D00680EBE53424FDFC8C348C01870209870309870419198A278B288C29AC1A
:2009360029BC800040047F438014BC600040047F50800BBC400040047F4980027F588F8276
:20095600C00712063675823A120636758230120636758278120636D007BF4902800BBF5040
:200976000280068528821206728527821206728023D20575350A801C753508801775350AA1
:200996008012753510800DD20880098F8212063680028E3630085CE53424FCFE8E348E0144
:2009B60087020987030987040987061919198A278B288C298E2A75273475280F75298085A0
:2009D600273985283A85293B74012539FAE4353AFCAE3B8A278C288E29853982853A8385A9
:2009F6003BF0120C08FEFF70030206F88F8212063680CCE53570030206F875384730062D91
:200A1600E53414F9893487048C027B007C007E008A278B288C298E2A200566AA277B007C2B
:200A3600007E008A278B288C298E2A8054300721E53424FCFE8E348E0187020987030987F1
:200A5600040987061919198A278B288C298E2A8030E53424FEFE8E348E0187040987061956
:200A7600EE3395E0FBFA8C278E288B298A2A200510AA27AB287C007E008A278B288C298E8A
:200A96002A300522E52A30E71BC3E49527FAE49528FBE49529FCE4952AFE8A278B288C292D
:200AB6008E2A8002C205D209A9387E00752B00853582C006C001120689D001D00620090B06
:200AD600E52BC4FCE7FB4CF7198002A72B0EB209E52745284529452A70D289388E05E536CE
:200AF6007003753601200224200121ED04FEAC36C3EE9C5015758220C006C005C004120638
:200B160036D004D005D0061C80E68C3630050E75822DC005120636D00515368023ED60201C
:200B360030030E75822BC005120636D0051536800F30040C758220C005120636D0051536F0
:200B5600200126AE368E041EC3ED9C502F3002067B307C0080047B207C008B82C006C00547
:200B7600120636D005D00680DCC3ED95365008E536C39DF536800775360080028E36A93838
:200B96008D068E051EED6026B20920090A09E7C4540FFD8D2B80078705740F5DF52B852B0B
:200BB60082C006C001120659D001D00680D42001030206F8AE368E051EED70030206F8751C
:1A0BD6008220C006120636D00680EB8F821206360206F8852C82852D832225
:0B0F34003C4E4F20464C4F41543E0005
:180BF000AA82AB83120C086003A380F8C3E5829AF582E5839BF5832217
:0D001100758147120C5AE582600302000E53
:1C0C080020F71430F6148883A88220F507E6A88375830022E280F7E49322E022FB
:200C2400C2D5E58330E70DD2D5E4C39582F582E49583F583E53D30E70BE4C3953CF53CE46C
:160C4400953DF53D12059C30D50BE4C39582F582E49583F5832208
:040C5A00758200227D
:00000001FF
