:0400000002001132B7
:03000B00020318D5
:11006A00E4F508F509F50AF50BF50CF50DF50EF50F9D
:0300850002000E68
:03000E000200FFEE
:2000880075B1677E007F01EE24FFFCEF34FFFD8C068D07EC4D70F0E5B130E7FB75B2882269
:2000A800759850758920758DDCD28E438E10438780D29943A4012275FFDE75FFAD120088D2
:2000C8001200A843E10443E34022AF8210990280FB8F992210980280FB8599821200D285DF
:2000E8009982222098057582FF800BC2988599821200D2859982221200BF1202F1120301F1
:200108001203077582201200D274B3C0E0740AC0E07480C0E012046215811581158174BBDE
:20012800C0E0740AC0E07480C0E01204621581158115811200DC85820FAE0F7F008E828F4C
:2001480083120374D2B3D2B430A0030202DCD28C20A0F574F6250C5025E50E70EBAE0AFFA5
:20016800C006C00774E6C0E0740AC0E07480C0E0120462E58124FBF581750E0180CA850B6D
:200188000DE50DB50B0812032B85820B80F3E50B7061C2B6E4F508F509C3E5089451E50930
:2001A800940140F5D2B6D2B520B03130B12E050AC2B3D2B47408C0E0740BC0E07480C0E075
:2001C800120462158115811581E4F508F509C3E50894A0E509940040F50202C3D2B3C2B4A1
:2001E800E4F508F509C3E50894A0E509940040F50202C37401B50B5FC2B5E4F508F509C309
:20020800E5089451E509940140F5D2B6D2B530B03020B12D050AC2B3D2B47408C0E0740B8A
:20022800C0E07480C0E0120462158115811581E4F508F509C3E50894A0E509940040F5804E
:200248007AD2B3C2B4E4F508F509C3E50894A0E509940040F580647402B50B5FC2B6C2B53F
:20026800E4F508F509C3E5089451E509940140F5D2B6D2B520B03020B12D050AC2B3D2B433
:200288007408C0E0740BC0E07480C0E0120462158115811581E4F508F509C3E50894A0E5A5
:2002A800099400501680F3C2B4D2B3E4F508F509C3E50894A0E509940040F5050CD2B3D2E3
:2002C800B4E4F508F509C3E50894A0E509940040F502015074F6250C5009750C00750A00A1
:2002E800750E00C28C02014C2243A7F853A7FC43B00353A6FE43A0012243A802D2AF224316
:200308008E085389F0438901C28CE4F58AF58C22C0E0C0D0C28D0508E4B508020509D0D075
:10032800D0E032120338751803751900120A7922C1
:200AB30053746172740D0A000D456E74657220612072616E646F6D206E756D6265722062A6
:200AD30065747765656E203020616E64203235353A20000D4E756D626572206F6620636F65
:1F0AF300727265637420726573706F6E7365733A2025750A000D436F72726563740A00DB
:0A007B00751201E4F513F514F515F4
:2003380085121885131985141A85151B904E6D75F0C67441120383AC82AD83AEF0FF743972
:200358002CF51274303DF513E43EF514E43FF515AC14AD158C82747F5DF58322AE82AF8335
:0B0378008E128F137514007515002203
:06004000E478FFF6D8FD94
:20001E007900E94400601B7A00900B1D780175AF00E493F2A308B8000205AFD9F4DAF27542
:02003E00AFFF12
:20038300AAF0FBE5828518F0A4FCADF0E5838518F0A42DFDE435F0FEE5828519F0A42DFD07
:2003A300E5F03EFEE433FFEA8518F0A42EFEE5F03FFFE5838519F0A42EFEE5F03FFFE58279
:2003C300851AF0A42EFEE5F03FFFEB8518F0A42FFFEA8519F0A42FFFE583851AF0A42FFF4B
:0E03E300E582851BF0A42F8EF08D838C822284
:2003F100E518451960467A01E51825E0F518E519334012F519E5829518E583951940030A59
:2004110080E6C3E51913F519E51813F518C3E5829518F5F0E58395194005F58385F082C31D
:0D043100E51913F519E51813F518DAE122A5
:200046007800E84400600A790175AF00E4F309D8FC7800E84400600C7900900001E4F0A3A9
:04006600D8FCD9FAEF
:20043E00C0178581171200D2D0172285823185833285F033E4F52EF52FF5308516349004F0
:20045E003E020539C017858117E51724FBFF8F34E4F52EF52FF530E51724FBF88631088687
:0D047E003208863390043E120539D0172253
:20048B00AF82C024C025C0261204988007C022C0238F8222158115811581052CE4B52C028A
:2004AB00052D22AF8274302FFF24C6500A74072FFF3000034307208F8202048BE582FFC484
:2004CB00540FF582C0071204AED007740F5FF5820204AE85821885271985281A85291B85CF
:2004EB002A1CAA2B751D20EA2AFAE51C235401FF8A064EFAE5192519F519E51A33F51AE556
:20050B001B33F51BE51C33F51CC3EA95184008EAC39518FA431901E51D14FF8F1D70C8855C
:20052B001927851A28851B29851C2A8A2B22858222858323852E24852F25853026E4F52C5A
:20054B00F52DAD31AE32AF338D828E838FF0120A5DFC74012DF531E43EF5328F33ECFF708C
:20056B0003020A3EBF25028003020A36C201C202C203C204C205C206C207C2087535007525
:20058B0036007537FFAA31AB32AE338A828B838EF0120A5DFFA3AA82AB838A318B328E3390
:2005AB00BF25078F8212048B8098BF3000402DEF24C6402874FFB53712E53675F00AA42F10
:2005CB00FC24D0F53670C4D20280C0E53775F00AA4FC8F05ED2C24D0F53780AFBF2E0A741B
:2005EB00FFB537A775370080A2BF6100400CEF248540075307DFD2008002C200BF20028095
:20060B006DBF2B028063BF2D028059BF42028063BF43028068BF44030207DCBF46030207FE
:20062B00F2BF4803020596BF49030207DCBF4A03020596BF4C028040BF4F030207E3BF50A4
:20064B0003020771BF5302805ABF5403020596BF55030207E8BF58030207EDBF5A03020536
:20066B00960207F6D201020596D203020596D204020596D206020596D20702059630060A5A
:20068B00E53414F9893487078011E53424FEFE8E348E018705098706198D078F8212048B42
:2006AB000207FFE53424FDFE8E348E01870409870509870619198C278D288E298C828D8379
:2006CB008EF0120A45AD82AE8374FFB537028D37200126C3ED95365020E536C39DF536AE25
:2006EB00368E041EEC6010758220C006C00512048BD005D00680EA8E36AE378527828528D1
:20070B00838529F0120A5DFCFF602F8E041EC374808CF063F08095F050208F82C006C00563
:20072B0012048BD005D006AA27AB28AC290ABA00010B8A278B288C2980C12001030207FF93
:20074B00C3ED953640030207FFE536C39DF536AE368E041EEC70030207FD758220C006123A
:20076B00048BD00680EBE53424FDFC8C348C01870209870309870419198A278B288C29AC74
:20078B0029BC800040047F438014BC600040047F50800BBC400040047F4980027F588F8223
:2007AB00C00712048B75823A12048B75823012048B75827812048BD007BF4902800BBF50A1
:2007CB000280068528821204C78527821204C78023D20575350A801C753508801775350AA8
:2007EB008012753510800DD20880098F8212048B80028E3630085CE53424FCFE8E348E019E
:20080B0087020987030987040987061919198A278B288C298E2A75271275280B7529808572
:20082B00273985283A85293B74012539FAE4353AFCAE3B8A278C288E29853982853A838555
:20084B003BF0120A5DFEFF700302054D8F8212048B80CCE535700302054D75384130062DF5
:20086B00E53414F9893487048C027B007C007E008A278B288C298E2A200566AA277B007CD8
:20088B00007E008A278B288C298E2A8054300721E53424FCFE8E348E01870209870309879E
:2008AB00040987061919198A278B288C298E2A8030E53424FEFE8E348E0187040987061903
:2008CB00EE3395E0FBFA8C278E288B298A2A200510AA27AB287C007E008A278B288C298E37
:2008EB002A300522E52A30E71BC3E49527FAE49528FBE49529FCE4952AFE8A278B288C29DA
:20090B008E2A8002C205D209A9387E00752B00853582C006C0011204DED001D00620090B5F
:20092B00E52BC4FCE7FB4CF7198002A72B0EB209E52745284529452A70D289388E05E5367A
:20094B007003753601200224200121ED04FEAC36C3EE9C5015758220C006C005C0041204E6
:20096B008BD004D005D0061C80E68C3630050E75822DC00512048BD00515368023ED602021
:20098B0030030E75822BC00512048BD0051536800F30040C758220C00512048BD0051536F7
:2009AB00200126AE368E041EC3ED9C502F3002067B307C0080047B207C008B82C006C005F4
:2009CB0012048BD005D00680DCC3ED95365008E536C39DF536800775360080028E36A93892
:2009EB008D068E051EED6026B20920090A09E7C4540FFD8D2B80078705740F5DF52B852BB8
:200A0B0082C006C0011204AED001D00680D420010302054DAE368E051EED700302054D75CD
:1A0A2B008220C00612048BD00680EB8F8212048B02054D852C82852D8322D7
:0B0B12003C4E4F20464C4F41543E002B
:180A4500AA82AB83120A5D6003A380F8C3E5829AF582E5839BF5832270
:0D001100758141120AAFE582600302000E06
:1C0A5D0020F71430F6148883A88220F507E6A88375830022E280F7E49322E022A8
:200A7900C2D5E58330E70DD2D5E4C39582F582E49583F583E51930E70BE4C39518F518E485
:160A99009519F5191203F130D50BE4C39582F582E49583F58322AA
:040AAF00758200222A
:00000001FF
