:0400000002001132B7
:03000B0002013EB1
:08006A00E4F508F50902000E9F
:03000E000200E904
:2000720075B1677E007F01EE24FFFCEF34FFFD8C068D07EC4D70F0E5B130E7FB75B288227F
:20009200759850758920758DDCD28E438E10438780D29943A4012275FFDE75FFAD120072FE
:2000B20012009243E10443E34022AF8210990280FB8F992210980280FB8599821200BC8521
:2000D2009982222098057582FF800BC2988599821200BC859982221200A97582201200BC69
:2000F2001201191201291201237408C0E07408C0E07480C0E01201ED1581158115811201AF
:200112005112016680F82243A71853A6FE43A0012243A802D2AF22538EF75389F05389FC5E
:20013200C28CE4F58AF58CF58AF58C22C0E0C0D0C28D0508E4B508020509D0D0D0E032C2D8
:200152008CE4F508F509C2B3C2B4758A00758C0020A0FD22D2B3C2B4D28C30A0FD750CE1D0
:20017200750D008508828509831201A0AE82AF83C006C007C008C0097410C0E07408C0E058
:0E0192007480C0E01201EDE58124F9F58122B0
:2008080053746172740D0A000D4E756D626572206F66204F766572666C6F7773203D2025B7
:13082800640A0D54696D652873656329203D2025640A0017
:2001A0007A10E4FBFCE58225E0F582E58333F583EB33FBEC33FCEB950CF5F0EC950D40066B
:0901C000FCABF0438201DADD2200
:06004000E478FFF6D8FD94
:20001E007900E94400601B7A00900846780175AF00E493F2A308B8000205AFD9F4DAF2751C
:02003E00AFFF12
:200046007800E84400600A790175AF00E4F309D8FC7800E84400600C7900900001E4F0A3A9
:04006600D8FCD9FAEF
:2001C900C00B85810B1200BCD00B2285823185833285F033E4F52EF52FF530850A349001B1
:2001E900C90202C4C00B85810BE50B24FBFF8F34E4F52EF52FF530E50B24FBF8863108861C
:0D020900320886339001C91202C4D00B22C6
:20021600AF82C024C025C0261202238007C022C0238F8222158115811581052CE4B52C0278
:20023600052D22AF8274302FFF24C6500A74072FFF3000034307208F82020216E582FFC472
:20025600540FF582C007120239D007740F5FF58202023985820C85270D85280E85290F8564
:200276002A10AA2B751120EA2AFAE510235401FF8A064EFAE50D250DF50DE50E33F50EE52D
:200296000F33F50FE51033F510C3EA950C4008EAC3950CFA430D01E51114FF8F1170C88540
:2002B6000D27850E28850F2985102A8A2B22858222858323852E24852F25853026E4F52C02
:2002D600F52DAD31AE32AF338D828E838FF01207E8FC74012DF531E43EF5328F33ECFF707C
:2002F600030207C9BF250280030207C1C201C202C203C204C205C206C207C208753500758D
:2003160036007537FFAA31AB32AE338A828B838EF01207E8FFA3AA82AB838A318B328E337F
:20033600BF25078F821202168098BF3000402DEF24C6402874FFB53712E53675F00AA42FFE
:20035600FC24D0F53670C4D20280C0E53775F00AA4FC8F05ED2C24D0F53780AFBF2E0A7492
:20037600FFB537A775370080A2BF6100400CEF248540075307DFD2008002C200BF2002800C
:200396006DBF2B028063BF2D028059BF42028063BF43028068BF4403020567BF46030205EF
:2003B6007DBF4803020321BF4903020567BF4A03020321BF4C028040BF4F0302056EBF506D
:2003D600030204FCBF5302805ABF5403020321BF5503020573BF5803020578BF5A0302038D
:2003F60021020581D201020321D203020321D204020321D206020321D20702032130060A11
:20041600E53414F9893487078011E53424FEFE8E348E018705098706198D078F8212021630
:2004360002058AE53424FDFE8E348E01870409870509870619198C278D288E298C828D8367
:200456008EF01207D0AD82AE8374FFB537028D37200126C3ED95365020E536C39DF536AE14
:20047600368E041EEC6010758220C006C005120216D005D00680EA8E36AE378527828528BF
:20049600838529F01207E8FCFF602F8E041EC374808CF063F08095F050208F82C006C00553
:2004B600120216D005D006AA27AB28AC290ABA00010B8A278B288C2980C120010302058AF9
:2004D600C3ED9536400302058AE536C39DF536AE368E041EEC7003020588758220C00612A0
:2004F6000216D00680EBE53424FDFC8C348C01870209870309870419198A278B288C29AC63
:2005160029BC800040047F438014BC600040047F50800BBC400040047F4980027F588F829A
:20053600C00712021675823A120216758230120216758278120216D007BF4902800BBF50F4
:200556000280068528821202528527821202528023D20575350A801C753508801775350A0D
:200576008012753510800DD20880098F8212021680028E3630085CE53424FCFE8E348E018C
:2005960087020987030987040987061919198A278B288C298E2A75273B75280875298085C4
:2005B600273985283A85293B74012539FAE4353AFCAE3B8A278C288E29853982853A8385CD
:2005D6003BF01207E8FEFF70030202D88F8212021680CCE53570030202D875381730062D76
:2005F600E53414F9893487048C027B007C007E008A278B288C298E2A200566AA277B007C50
:20061600007E008A278B288C298E2A8054300721E53424FCFE8E348E018702098703098715
:20063600040987061919198A278B288C298E2A8030E53424FEFE8E348E018704098706197A
:20065600EE3395E0FBFA8C278E288B298A2A200510AA27AB287C007E008A278B288C298EAE
:200676002A300522E52A30E71BC3E49527FAE49528FBE49529FCE4952AFE8A278B288C2951
:200696008E2A8002C205D209A9387E00752B00853582C006C001120269D001D00620090B4E
:2006B600E52BC4FCE7FB4CF7198002A72B0EB209E52745284529452A70D289388E05E536F2
:2006D6007003753601200224200121ED04FEAC36C3EE9C5015758220C006C005C004120260
:2006F60016D004D005D0061C80E68C3630050E75822DC005120216D00515368023ED602085
:2007160030030E75822BC005120216D0051536800F30040C758220C005120216D00515365C
:20073600200126AE368E041EC3ED9C502F3002067B307C0080047B207C008B82C006C0056B
:20075600120216D005D00680DCC3ED95365008E536C39DF536800775360080028E36A93880
:200776008D068E051EED6026B20920090A09E7C4540FFD8D2B80078705740F5DF52B852B2F
:2007960082C006C001120239D001D00680D42001030202D8AE368E051EED70030202D875AC
:1A07B6008220C006120216D00680EB8F821202160202D8852C82852D8322B5
:0B083B003C4E4F20464C4F41543E0005
:1807D000AA82AB831207E86003A380F8C3E5829AF582E5839BF5832260
:0D00110075813B120804E582600302000EB9
:1C07E80020F71430F6148883A88220F507E6A88375830022E280F7E49322E02220
:0408040075820022D7
:00000001FF
