:040000000200513277
:01000B0032C2
:0100130032BA
:01001B0032B2
:0100230032AA
:01002B0032A2
:01003300329A
:01003B003292
:01004300328A
:03004B0002068228
:2000AA007536CC75370A75389275390D753A50753B09753CCC753D0A753EFF753F6FE4F570
:2000CA0040F541754234754308754434754508F546F547F548F549754A02F54BF54CF54DD0
:0300EA0002004EC3
:03004E000205EFB9
:2000ED0075B1677E007F01EE24FFFCEF34FFFD8C068D07EC4D70F0E5B130E7FB75B2882204
:20010D00759850758920758DDCD28E438E10438780D29943A4012275FFDE75FFAD1200ED07
:20012D0012010D43E10443E34022AF8210990280FB8F992210980280FB85998212013785AD
:20014D009982222098057582FF800BC29885998212013785998222C00F85810FE50F24FB1A
:20016D00F886820886830886F0120ECDE5828583F045F070028062E50F24FBFF8F0BE50F6E
:20018D0024FBF8860808860908860A90000175F00012083B90000175F000120ECDAE827FA1
:2001AD0000C3EF9E501FEF2401F582E43400F583E0FDBD0A0DEF2401F582E43400F5837418
:2001CD000DF00F80DC752D01752E00752F00752C008E307582C6120475D00F227527007408
:2001ED00C0252740177532277533007534407531007535017582C61204EF80E375280C759C
:20020D002D28752E00752F40752C007530017582C61204752275322A75330075344075313C
:20022D00017535027582C61204EF74FFB52A05758200805F7F008F068EF005F07C017D0094
:20024D008006EC2CFCED33FDD5F0F7AA2A7B00EA5204EB5205EC4D600774312FF5828033AF
:20026D000E8E07BE080040D0E52B30E0057582398021E52B30E10575822A8017E52B30E202
:20028D0005758230800DE52B30E30575822380037582FF22AF82E4FDFEEF701DC006C005A4
:2002AD007405C0E0740FC0E07480C0E0120164158115811581D005D006C006C0057408C0B6
:2002CD00E0E4C0E07408C0E0E4C0E07408C0E0E4C0E07408C0E0E4C0E07408C0E0E4C0E02D
:2002ED00741BC0E0740FC0E07480C0E0120164E58124F3F58190A12075F007E4120410D00A
:20030D0005D0067F00C007C006C005120222AC82D005D006D0078C03BCFF028003BB2A1773
:20032D00902710E4F5F0C007C006C005120410D005D006D00780CEBB232AC006C005120231
:20034D0022AC82D005D006BC2313902710E4F5F0C006C005120410D005D00680DD8D828EBD
:20036D008302040F8B027C00C007C006C005C004C003C002C002C004742BC0E0740FC0E04C
:20038D007480C0E0120164E58124FBF581D002D003D004D005D0068D118E1290000AC0048A
:2003AD00C003C0021207AEA882A983D002D003D004D007EA28F8EC39F9E824D0FDE934FF21
:2003CD00FEC007C006C005C003120222AC82D003D005D006D007ECB5031B902710E4F5F0F5
:2003ED00C007C006C005C003120410D003D005D006D00780CC0FBF050050030203128D82C8
:20040D008E8322AC82AD83AEF0FF780079007A007B00C3E89CE99DEA9EEB9F500F08B800BD
:20042D000909B900050ABA00E90B80E62220C7FDD2C530C3FDC2C5C2C3228582C210C30268
:20044D0080FB228582C2D2C410C30280FB2230C3FD85C282C2C32230C3FDAFC2C2C3D2C445
:20046D0010C30280FB8F8222AF82C2AFC00712043AD00774FE5FF582120447852C8212046E
:20048D00477F00AD307E001DBDFF011E8F037C00C3EB9DEC64808EF063F08095F0501FEFD9
:2004AD00252DFCE4352EFDAE2F8C828D838EF0120EE5F582C007120447D0070F80C5AE307B
:2004CD007F001EBEFF011FEE252DFEEF352EFFAD2F8E828F838DF0120EE5F582120450D2D7
:2004ED00AF22AF82C2AFC00712043AD00774FE5FF582C00712044785318212045012043A34
:20050D00D00774014FF5821204477F00AD357E001DBDFF011E8F037C00C3EB9DEC64808ED1
:20052D00F063F08095F0502ED2C2EF2532FCE43533FDAE34C007C006C005C00412045BABB5
:20054D0082D004D005D006D0078C828D838EF0EB1207930F80B6C2C2AE357F001EBEFF017C
:20056D001FEE2532FEEF3533FFAD34C007C006C005120464AC82D005D006D0078E828F8337
:20058D008DF0EC120793D2AF22752223752300752310752400752D22752E00752F40752C17
:2005AD002075300175823012047522752204752D22752E00752F40752C2375300175823A13
:2005CD0012047575226B752300752400752D22752E00752F40752C2075300175823A120457
:2005ED00752212012475822012013712065E12066812067212066C12067C742EC0E0740F62
:20060D00C0E07480C0E01208EA15811581158185363C85373DE4F540F5411206C9C3E546C5
:20062D009419E547940040F2C03CC03DC042C043C044C0457455C0E0740FC0E07480C0E0E7
:20064D001208EAE58124F7F581E4F546F54780CA2275A50153A77F43B0802275E12722758E
:20066D00CF93D2C62275D98175DAC243D8402243E608D2AF22C0E0C0D030DF12853EE9859E
:20068D003FF9C2DF0540E4B540070541800353D8C0D0D0D0E03275324F753300753440751D
:2006AD0031027535027582C01204EFAF4F7E00AC507D00EC4EF542ED4FF54322C3E540941A
:2006CD0002E541940040100546E4B5460205471206A3E4F540F541E544C39542F548E54555
:2006ED009543F549C37408954874878549F063F08095F0500EE54824F0F548E54934F1F586
:20070D00498019C3E54894F8E54964809478500C74102548F548740E3549F54985488285B4
:20072D004983854A11854B121207AEE5828583F02536F54CE53735F0F54D20B72EC3E538F4
:20074D00954CE539954D500885383C85393D8021C3E54C953AE54D953B5008853A3C853BE6
:20076D003D800E854C3C854D3D800685363C85373DAF3C74FFC39FF5EA74FFC3953C74FFF6
:06078D00953DFF8FFA22EA
:200F05000A54797065206469676974733B20656E6420772F2300202020202025632563252C
:200F2500632563256300256300456D62656464656420436F6E74726F6C204175746F6E6F10
:200F45006D6F7573205374656572696E670A0D000A0D446573697265642048656164696E10
:200F6500673A202575090941637475616C2048656164696E673A202575090950756C7365C6
:0D0F85002057696474683A2025750A0D0034
:06008000E478FFF6D8FD54
:20005E007900E94400601B7A00900F9D785175AF00E493F2A308B8000205AFD9F4DAF2752E
:02007E00AFFFD2
:1B07930020F71130F6138883A88220F509F6A8837583002280FEF280F5F02265
:1D07AE00E5828511F0A4C582C0F08512F0A4D0F025F0C5838511F0A42583F58322F2
:2007CB00C00F85810FC082058105810581E50F24FBF8A90F0909E6F70809E6F70809E6F7C8
:2007EB00A80F080886820886830886F0120EE5FAA3120EE5FBA3120EE5FF74012AFCE43B8D
:20080B00FD8F06A80F080886820886830886F0EC120793A3ED120793A3EE1207938A828B35
:20082B00838FF0A80F08E6120793850F81D00F2285820C85830D85F00E755D0C755E007573
:20084B005F40850860850961850A62850B639007CB1209C1AE82AF83AB0CAC0DAD0E8B8256
:20086B008C838DF0E41207938E828F8322C00F85810FE50F24F8FF8F63E50F24FBFF8F5D2A
:20088B00755E00755F40E50F24F8F886600886610886629007CB1209C1AE82AF83E50F24E1
:1B08AB00FBF886030886040886058B828C838DF0E41207938E828F83D00F2245
:200086007800E84400600A790175AF00E4F309D8FC7850E84400600C7901900001E4F0A318
:0400A600D8FCD9FAAF
:2008C600C00F85810F120137D00F2285826085836185F062E4F55DF55EF55F8510639008CF
:2008E600C60209C1C00F85810FE50F24FBFF8F63E4F55DF55EF55FE50F24FBF8866008861C
:0D090600610886629008C61209C1D00F2258
:20091300AF82C053C054C0551209208007C051C0528F8222158115811581055BE4B55B0227
:20093300055C22AF8274302FFF24C6500A74072FFF3000034307208F82020913E582FFC43B
:20095300540FF582C007120936D007740F5FF58202093685821185561285571385581485B7
:200973005915AA5A751620EA2AFAE515235401FF8A064EFAE5122512F512E51333F513E5A3
:200993001433F514E51533F515C3EA95114008EAC39511FA431201E51614FF8F1670C8850F
:2009B30012568513578514588515598A5A22858251858352855D53855E54855F55E4F55B58
:2009D300F55CAD60AE61AF628D828E838FF0120EE5FC74012DF560E43EF5618F62ECFF702B
:2009F30003020EC6BF25028003020EBEC201C202C203C204C205C206C207C2087564007552
:200A130065007566FFAA60AB61AE628A828B838EF0120EE5FFA3AA82AB838A608B618E62FF
:200A3300BF25078F821209138098BF3000402DEF24C6402874FFB56612E56575F00AA42F98
:200A5300FC24D0F56570C4D20280C0E56675F00AA4FC8F05ED2C24D0F56680AFBF2E0A7401
:200A7300FFB566A775660080A2BF6100400CEF248540075307DFD2008002C200BF200280AA
:200A93006DBF2B028063BF2D028059BF42028063BF43028068BF4403020C64BF4603020CE0
:200AB3007ABF4803020A1EBF4903020C64BF4A03020A1EBF4C028040BF4F03020C6BBF505C
:200AD30003020BF9BF5302805ABF5403020A1EBF5503020C70BF5803020C75BF5A03020A72
:200AF3001E020C7ED201020A1ED203020A1ED204020A1ED206020A1ED207020A1E30060AF8
:200B1300E56314F9896387078011E56324FEFE8E638E018705098706198D078F821209136C
:200B3300020C87E56324FDFE8E638E01870409870509870619198C568D578E588C828D8374
:200B53008EF0120ECDAD82AE8374FFB566028D66200126C3ED95655020E565C39DF565AE21
:200B7300658E041EEC6010758220C006C005120913D005D00680EA8E65AE668556828557CC
:200B9300838558F0120EE5FCFF602F8E041EC374808CF063F08095F050208F82C006C0051C
:200BB300120913D005D006AA56AB57AC580ABA00010B8A568B578C5880C1200103020C87D3
:200BD300C3ED95654003020C87E565C39DF565AE658E041EEC7003020C85758220C00612D8
:200BF3000913D00680EBE56324FDFC8C638C01870209870309870419198A568B578C58AC70
:200C130058BC800040047F438014BC600040047F50800BBC400040047F4980027F588F8267
:200C3300C00712091375823A120913758230120913758278120913D007BF4902800BBF50E0
:200C530002800685578212094F85568212094F8023D20575640A801C756408801775640A16
:200C73008012756410800DD20880098F8212091380028E6530085CE56324FCFE8E638E01C8
:200C930087020987030987040987061919198A568B578C588E5975569275570F7558808519
:200CB300566885576985586A74012568FAE43569FCAE6A8A568C578E588568828569838537
:200CD3006AF0120EE5FEFF70030209D58F8212091380CCE56470030209D575671C30062DD0
:200CF300E56314F9896387048C027B007C007E008A568B578C588E59200566AA567B007C03
:200D1300007E008A568B578C588E598054300721E56324FCFE8E638E0187020987030987F7
:200D3300040987061919198A568B578C588E598030E56324FEFE8E638E018704098706195C
:200D5300EE3395E0FBFA8C568E578B588A59200510AA56AB577C007E008A568B578C588E03
:200D730059300522E55930E71BC3E49556FAE49557FBE49558FCE49559FE8A568B578C58A6
:200D93008E598002C205D209A9677E00755A00856482C006C001120966D001D00620090B8A
:200DB300E55AC4FCE7FB4CF7198002A75A0EB209E55645574558455970D289678E05E56576
:200DD3007003756501200224200121ED04FEAC65C3EE9C5015758220C006C005C0041209F7
:200DF30013D004D005D0061C80E68C6530050E75822DC005120913D00515658023ED602022
:200E130030030E75822BC005120913D0051565800F30040C758220C005120913D0051565F2
:200E3300200126AE658E041EC3ED9C502F3002067B307C0080047B207C008B82C006C00538
:200E5300120913D005D00680DCC3ED95655008E565C39DF565800775650080028E65A9675E
:200E73008D068E051EED6026B20920090A09E7C4540FFD8D5A80078705740F5DF55A855A9E
:200E930082C006C001120936D001D00680D42001030209D5AE658E051EED70030209D5756D
:1A0EB3008220C006120913D00680EB8F821209130209D5855B82855C832247
:0B0F92003C4E4F20464C4F41543E00A7
:180ECD00AA82AB83120EE56003A380F8C3E5829AF582E5839BF5832258
:0D00510075816A120F01E582600302004E06
:1C0EE50020F71430F6148883A88220F507E6A88375830022E280F7E49322E0221C
:040F010075820022D3
:00000001FF
