:040000000200513277
:01000B0032C2
:0100130032BA
:01001B0032B2
:0100230032AA
:01002B0032A2
:01003300329A
:01003B003292
:01004300328A
:03004B00020B881D
:2000AA00753600753700753800753934753A08753B8C753C0A753D8C753E0A753F0075403E
:2000CA0061E4F543F544754532F5467547CD75480AF549F54A754BCD754C0AF54DF54EF59A
:2000EA004FF550F551F55275539A75549975559975563E7557A0F5587559AE755A0D755BC4
:07010A00F8755C0B02004ECA
:03004E0002061394
:2001110075B1677E007F01EE24FFFCEF34FFFD8C068D07EC4D70F0E5B130E7FB75B28822DF
:20013100759850758920758DDCD28E438E10438780D29943A4012275FFDE75FFAD120111BE
:2001510012013143E10443E34022AF8210990280FB8F992210980280FB85998212015B8541
:200171009982222098057582FF800BC29885998212015B85998222C00F85810FE50F24FBD2
:20019100F886820886830886F01215C9E5828583F045F070028062E50F24FBFF8F0BE50F47
:2001B10024FBF8860808860908860A90000175F000120DF090000175F0001215C9AE827FC0
:2001D10000C3EF9E501FEF2401F582E43400F583E0FDBD0A0DEF2401F582E43400F58374F4
:2001F1000DF00F80DC752D01752E00752F00752C008E307582C6120499D00F2275270074C0
:20021100C0252740177532277533007534407531007535017582C612051380E375280C7552
:200231002D28752E00752F40752C007530017582C61204992275322A7533007534407531F4
:20025100017535027582C612051374FFB52A05758200805F7F008F068EF005F07C017D004B
:200271008006EC2CFCED33FDD5F0F7AA2A7B00EA5204EB5205EC4D600774312FF58280338B
:200291000E8E07BE080040D0E52B30E0057582398021E52B30E10575822A8017E52B30E2DE
:2002B10005758230800DE52B30E30575822380037582FF22AF82E4FDFEEF701DC006C00580
:2002D1007441C0E07417C0E07480C0E0120188158115811581D005D006C006C0057408C02A
:2002F100E0E4C0E07408C0E0E4C0E07408C0E0E4C0E07408C0E0E4C0E07408C0E0E4C0E009
:200311007457C0E07417C0E07480C0E0120188E58124F3F58190A12075F007E4120434D059
:2003310005D0067F00C007C006C005120246AC82D005D006D0078C03BCFF028003BB2A172B
:20035100902710E4F5F0C007C006C005120434D005D006D00780CEBB232AC006C0051202E9
:2003710046AC82D005D006BC2313902710E4F5F0C006C005120434D005D00680DD8D828E51
:20039100830204338B027C00C007C006C005C004C003C002C002C0047467C0E07417C0E0C0
:2003B1007480C0E0120188E58124FBF581D002D003D004D005D0068D118E1290000AC00442
:2003D100C003C002120D63A882A983D002D003D004D007EA28F8EC39F9E824D0FDE934FF42
:2003F100FEC007C006C005C003120246AC82D003D005D006D007ECB5031B902710E4F5F0AD
:20041100C007C006C005C003120434D003D005D006D00780CC0FBF050050030203368D825B
:200431008E8322AC82AD83AEF0FF780079007A007B00C3E89CE99DEA9EEB9F500F08B80099
:200451000909B900050ABA00E90B80E62220C7FDD2C530C3FDC2C5C2C3228582C210C30244
:2004710080FB228582C2D2C410C30280FB2230C3FD85C282C2C32230C3FDAFC2C2C3D2C421
:2004910010C30280FB8F8222AF82C2AFC00712045ED00774FE5FF58212046B852C82120402
:2004B1006B7F00AD307E001DBDFF011E8F037C00C3EB9DEC64808EF063F08095F0501FEF91
:2004D100252DFCE4352EFDAE2F8C828D838EF01216A4F582C00712046BD0070F80C5AE306C
:2004F1007F001EBEFF011FEE252DFEEF352EFFAD2F8E828F838DF01216A4F582120474D2C8
:20051100AF22AF82C2AFC00712045ED00774FE5FF582C00712046B85318212047412045E7F
:20053100D00774014FF58212046B7F00AD357E001DBDFF011E8F037C00C3EB9DEC64808E89
:20055100F063F08095F0502ED2C2EF2532FCE43533FDAE34C007C006C005C00412047FAB6D
:2005710082D004D005D006D0078C828D838EF0EB120D480F80B6C2C2AE357F001EBEFF019D
:200591001FEE2532FEEF3533FFAD34C007C006C005120488AC82D005D006D0078E828F83EF
:2005B1008DF0EC120D48D2AF22752223752300752310752400752D22752E00752F40752C38
:2005D1002075300175823012049922752204752D22752E00752F40752C2375300175823ACB
:2005F10012049975226B752300752400752D22752E00752F40752C2075300175823A12040F
:20061100992212014875822012015B120B3F120B53120B49120B72120B4D120B82746AC0C6
:20063100E07417C0E07480C0E0120FCC1581158115811201658582407431B54007E4F53DE5
:20065100F53E80207432B54008753D84753E0380137433B54008753D08753E078006753D44
:200671008C753E0A853D3B853E3C74A3C0E07417C0E07480C0E0120FCC15811581158112ED
:2006910001658582407420B5400280387475B5400D7432255BF55BE4355CF55C80117464C9
:2006B100B5400CE55B24CEF55BE55C34FFF55C74FFC3955BF5EB74FF955CF5FB120165858A
:2006D100824080C1855B59855C5AC03BC03C74FBC0E07417C0E07480C0E0120FCCE5812456
:2006F100FBF58174FFC39559F5EB74FF955AF5FB75EC3275FCF575ED3275FDF5753600740F
:20071100CE253650FA753600753700753F0012087512072880F82274FC253750241208295D
:20073100858245858346754151752D41752E00752F40752C007530017582E0120499753724
:2007510000C3742D9545E495465014C3E5459437E54694005009853D3B853E3C0207F8C397
:20077100E545942DE54694005040C374059545E49546400EE53D24F8F53BE53E34F8F53C1D
:20079100806585451185461290FFD3120D63E5828583F024E9FE740735F0FFAC3DAD3EECFE
:2007B100C39EF53BED9FF53C803DC3745F9545E49546500E7408253DF53B7407353EF53C63
:2007D100802585451185461290002D120D63E5828583F02455FEE5F034F6FFAC3DAD3EEED6
:2007F1002CF53BEF3DF53CE53C30E70E7410253BF53B740E353CF53C801DC37410953B7489
:200811008E853CF063F08095F0500CE53B24F0F53BE53C34F1F53C2275324175330075349E
:20083100407531027535027582E0120513AF417E00AC427D00EC4EF582ED4FF5832275320B
:20085100417533007534407531027535027582C0120513AF417E00AC427D00EC4EF539ED52
:200871004FF53A2274FE25365008053F12084F753600E53BC39539F54FE53C953AF550C35D
:200891007408954F74878550F063F08095F0500EE54F24F0F54FE55034F1F5508019C3E505
:2008B1004F94F8E55064809478500C7410254FF54F740E3550F550AC4FE550FD3395E0FE70
:2008D1008C828D838EF0120CAEAC82AD83AEF0FFC004C005C006C0078553828554838555FE
:2008F100F0E556120BAAAC82AD83AEF0FFE58124FCF581E54FC39551FAE55095528A11F57B
:20091100123395E0F513F514A857A9587A007B00888289838AF0EBC007C006C005C0041263
:200931000E7B120CAEA882A983AAF0FBD004D005D006D007C000C001C002C0038C828D83EC
:200951008EF0EF120EE9AC82AD83AEF0FFE58124FCF581C007C006C005C004C004C005C0BA
:2009710006C00790D00075F02C7445120B9FA882A983AAF0FBE58124FCF581888289838AAC
:20099100F0EB120CDB85824785834885F049F54AD004D005D006D007E4C0E074D0C0E074A5
:2009B1002CC0E07445C0E08C828D838EF0EF120EE9AC82AD83AEF0FFE58124FCF5818C8268
:2009D1008D838EF0EF120CDB85824B85834C85F04DF54EC374AE9547740D9548E495497490
:2009F10080854AF063F08095F0500D7547AE75480DE4F549F54A8020C3E54794ECE548948D
:200A110007E5499400E54A64809480500B7547EC754807E4F549F54AC374AE954B740D95D2
:200A31004CE4954D7480854EF063F08095F0500D754BAE754C0DE4F54DF54E8020C3E54BEF
:200A510094ECE54C9407E54D9400E54E64809480500B754BEC754C07E4F54DF54E74E72590
:200A71003F4003020B0E120B5D854382854483120F42AC82AD83AEF0FFE4C0E0C0E0748042
:200A9100C0E07443C0E08C828D838EF0EF1215E1AC82AD83AEF0FFE58124FCF581C004C040
:200AB10005C006C00790400075F0677446120BAAAC82AD83AEF0FFE58124FCF5818C828DE4
:200AD100838EF0EF120F4E858243858344C043C044C047C048C049C04AC045C046C039C023
:200AF1003AC03BC03C7412C0E07418C0E07480C0E0120FCCE58124F1F581753F0074FFC306
:200B11009547FC74FF9548FDE49549E4954A8CEC8DFC74FFC3954BFC74FF954CFDE4954DF0
:200B3100E4954E8CED8DFD854F518550522275A4F053A5F74390082275E1252275CF93D231
:200B5100C62275D10343AB0175AA802275AC0353AADF43AA10E5AA30E5FB859C43754400EA
:200B71002275D98175DBC275DCC275DDC243D8402243E608D2AF2230DF1075E9FF75F96F90
:0E0B9100C2DF053605370538800353D8C03261
:201741000A54797065206469676974733B20656E6420772F230020202020202563256325E8
:2017610063256325630025630043686F6F7365206120646573697265642068656164696E02
:20178100673A0A0D312920300A0D32292039300A0D3329203138300A0D3429203237300A88
:2017A1000D000A0D5072657373207520616E64206420666F7220757020616E6420646F7762
:2017C1006E20756E74696C2074686520726F746F72732061726520766572746963616C2E24
:2017E100205072657373207370616365207768656E20646F6E652E0A0D000A0D4465736916
:201801007265642048656164696E673A25750A0D000A0D4465732E20486561643A257520EA
:20182100486561642E3A25752C2052616E6765723A25752C204C50573A256C642C20426157
:0B18410074742E286D56293A2575009E
:0B0B9F00A8811818C6B2E7C6020EE9D4
:200BAA00120C4DBC0003020F7AEF60FA30D502B2D1E583B4FF03020F90E582B4FF03020FB6
:200BCA0090258340072482400B020F7A2483145003020F90F582EA8DF0A4A8F0EA8EF0A43B
:200BEA0028F8E435F0F9EB8DF0A428E935F0F9E433CA8FF0A429F9EA35F0FAEBF88EF0A45A
:200C0A0029F9EA35F0FAE433FBEC8DF0A429F9EA35F0FAE43BFBE88FF0A42AFAEB35F0FB01
:200C2A00E433CCFD8EF0A42AFAEB35F0FBE43CFCED8FF0A42BFBEC35F0FC20E703120C7B77
:030C4A00020F593D
:200C4D00AA82AB83A2F73392D1F5826002D2F7ACF0E58124F9F8E6FD08E6FE0886F008E60A
:0E0C6D00A2F73392D5F5836002D2F7AFF022E2
:06008000E478FFF6D8FD54
:200C7B007804EC7011E58224F8500AF582E4C9CACBFCD8EF22EC7820058220E713D5820178
:130C9B0022C3E933F9EA33FAEB33FBEC33FCD8EA15822286
:200CAE00FCABF0AA83A982749EF582C2D1EC30E716D2D1E9F42401F9EAF43400FAEBF43445
:0D0CCE0000FBECF43400FC120C7B020F590B
:200CDB00120D36C3749E9582403979001216D330D126E9F42401F582EAF43400F583EBF4C2
:200CFB003400F5F0ECF43400700AE582458345F0700122E430E70F22EC20E71489828A83F0
:1B0D1B008BF02230D10AE4F582F583F5F074802274FFF582F583F5F0747F22EB
:20005E007900E94400601B7A00901857785175AF00E493F2A308B8000205AFD9F4DAF2756B
:02007E00AFFFD2
:120D3600AA82AB83A2F73392D1F5826002D2F7ACF022C2
:1B0D480020F71130F6138883A88220F509F6A8837583002280FEF280F5F022AA
:1D0D6300E5828511F0A4C582C0F08512F0A4D0F025F0C5838511F0A42583F5832237
:200D8000C00F85810FC082058105810581E50F24FBF8A90F0909E6F70809E6F70809E6F70D
:200DA000A80F080886820886830886F01216A4FAA31216A4FBA31216A4FF74012AFCE43B7D
:200DC000FD8F06A80F080886820886830886F0EC120D48A3ED120D48A3EE120D488A828B4A
:200DE000838FF0A80F08E6120D48850F81D00F2285820C85830D85F00E75690C756A0075E6
:200E00006B4085086C85096D850A6E850B6F900D801210A3AE82AF83AB0CAC0DAD0E8B82BB
:200E20008C838DF0E4120D488E828F8322C00F85810FE50F24F8FF8F6FE50F24FBFF8F699C
:200E4000756A00756B40E50F24F8F8866C08866D08866E900D801210A3AE82AF83E50F2446
:1B0E6000FBF886030886040886058B828C838DF0E4120D488E828F83D00F22CF
:200E7B00AAF0FBE5828511F0A4FCADF0E5838511F0A42DFDE435F0FEE5828512F0A42DFD19
:200E9B00E5F03EFEE433FFEA8511F0A42EFEE5F03FFFE5838512F0A42EFEE5F03FFFE58284
:200EBB008513F0A42EFEE5F03FFFEB8511F0A42FFFEA8512F0A42FFFE5838513F0A42FFF64
:0E0EDB00E5828514F0A42F8EF08D838C822288
:200086007800E84400600A790175AF00E4F309D8FC7850E84400600C7901900001E4F0A318
:0400A600D8FCD9FAAF
:200EE900120C4D7900E583B58202800D50031215AFE583C395821216D3E5D0C465D020E1C2
:200F090017EA2DFAEB3EFBEC3FFC500974011216D3EC4480FC020F59C3EA9DFAEB9EFBECC2
:190F29009FFC500FC3E499F9E49AFAE49BFBE49CFCB2D1120C7B020F5988
:0C0F4200E4AC83AB82FAF9748E0216C98D
:0B0F4E007F8E12171CF58385F08222B5
:200F5900B98003EA13B34010EA2401FAE43BFBE43CFC50047C800582BC000EBB000BBA00DC
:200F790008E4F5F0F583F58222A2D1E582138CF092F78B838A8222E4F583F58275F080F49C
:0F0F9900A2D11322E4F583F58275F0C0747F2294
:200FA800C00F85810F12015BD00F2285826C85836D85F06EE4F569F56AF56B85106F900F67
:200FC800A80210A3C00F85810FE50F24FBFF8F6FE4F569F56AF56BE50F24FBF8866C08862C
:0D0FE8006D08866E900FA81210A3D00F2286
:200FF500AF82C05FC060C0611210028007C05DC05E8F82221581158115810567E4B5670202
:20101500056822AF8274302FFF24C6500A74072FFF3000034307208F82020FF5E582FFC45E
:20103500540FF582C007121018D007740F5FF58202101885821185621285631385641485D8
:201055006515AA66751620EA2AFAE515235401FF8A064EFAE5122512F512E51333F513E5A2
:201075001433F514E51533F515C3EA95114008EAC39511FA431201E51614FF8F1670C88526
:2010950012628513638514648515658A662285825D85835E85695F856A60856B61E4F567C7
:2010B500F568AD6CAE6DAF6E8D828E838FF01216A4FC74012DF56CE43EF56D8F6EECFF7027
:2010D500030215A8BF250280030215A0C201C202C203C204C205C206C207C208757000758B
:2010F50071007572FFAA6CAB6DAE6E8A828B838EF01216A4FFA3AA82AB838A6C8B6D8E6EF0
:20111500BF25078F82120FF58098BF3000402DEF24C6402874FFB57212E57175F00AA42FAF
:20113500FC24D0F57170C4D20280C0E57275F00AA4FC8F05ED2C24D0F57280AFBF2E0A74F4
:20115500FFB572A775720080A2BF6100400CEF248540075307DFD2008002C200BF200280A9
:201175006DBF2B028063BF2D028059BF42028063BF43028068BF4403021346BF4603021307
:201195005CBF4803021100BF4903021346BF4A03021100BF4C028040BF4F0302134DBF50ED
:2011B500030212DBBF5302805ABF5403021100BF5503021352BF5803021357BF5A030211DE
:2011D50000021360D201021100D203021100D204021100D206021100D20702110030060AB7
:2011F500E56F14F9896F87078011E56F24FEFE8E6F8E018705098706198D078F82120FF56C
:20121500021369E56F24FDFE8E6F8E01870409870509870619198C628D638E648C828D8366
:201235008EF01215C9AD82AE8374FFB572028D72200126C3ED95715020E571C39DF571AEF9
:20125500718E041EEC6010758220C006C005120FF5D005D00680EA8E71AE728562828563BF
:20127500838564F01216A4FCFF602F8E041EC374808CF063F08095F050208F82C006C00560
:20129500120FF5D005D006AA62AB63AC640ABA00010B8A628B638C6480C1200103021369D1
:2012B500C3ED95714003021369E571C39DF571AE718E041EEC7003021367758220C00612ED
:2012D5000FF5D00680EBE56F24FDFC8C6F8C01870209870309870419198A628B638C64AC63
:2012F50064BC800040047F438014BC600040047F50800BBC400040047F4980027F588F8273
:20131500C007120FF575823A120FF5758230120FF5758278120FF5D007BF4902800BBF5057
:201335000280068563821210318562821210318023D20575700A801C757008801775700A1F
:201355008012757010800DD20880098F82120FF580028E7130085CE56F24FCFE8E6F8E01C7
:2013750087020987030987040987061919198A628B638C648E6575624C7563187564808519
:20139500627485637585647674012574FAE43575FCAE768A628C638E6485748285758385A6
:2013B50076F01216A4FEFF70030210B78F82120FF580CCE57070030210B775731C30062D42
:2013D500E56F14F9896F87048C027B007C007E008A628B638C648E65200566AA627B007CC6
:2013F500007E008A628B638C648E658054300721E56F24FCFE8E6F8E0187020987030987C7
:20141500040987061919198A628B638C648E658030E56F24FEFE8E6F8E018704098706192B
:20143500EE3395E0FBFA8C628E638B648A65200510AA62AB637C007E008A628B638C648EAE
:2014550065300522E56530E71BC3E49562FAE49563FBE49564FCE49565FE8A628B638C6451
:201475008E658002C205D209A9737E00756600857082C006C001121048D001D00620090B88
:20149500E566C4FCE7FB4CF7198002A7660EB209E56245634564456570D289738E05E5712D
:2014B5007003757101200224200121ED04FEAC71C3EE9C5015758220C006C005C004120FF0
:2014D500F5D004D005D0061C80E68C7130050E75822DC005120FF5D00515718023ED602057
:2014F50030030E75822BC005120FF5D0051571800F30040C758220C005120FF5D005157122
:20151500200126AE718E041EC3ED9C502F3002067B307C0080047B207C008B82C006C00543
:20153500120FF5D005D00680DCC3ED95715008E571C39DF571800775710080028E71A97345
:201555008D068E051EED6026B20920090A09E7C4540FFD8D6680078705740F5DF566856691
:2015750082C006C001121018D001D00680D42001030210B7AE718E051EED70030210B775BD
:1A1595008220C006120FF5D00680EB8F82120FF50210B7856782856883228D
:0B184C003C4E4F20464C4F41543E00E4
:1A15AF00E582C583F582A2D133A2D592D11392D5ECCFFCEBCEFBEACDFA22C4
:1815C900AA82AB831216A46003A380F8C3E5829AF582E5839BF583228E
:2015E100120C4D30D502B2D1BF0009BC0003020F9D020F90BC0003020F7AE583B4FF0BE5CA
:2016010082B4FF03020F9D020F7AE582B4FF03020F90C395835007247F400B020F7A24804B
:20162100145003020F90F582C3ED9AEE9BEF9C40111582C3EA33F9EB33FAEC33FBE433FCC6
:201641008005E4CCCBCAF9C08275F019C3E99DEA9EEB9FEC9400D5F002802D400EE99DF9EA
:20166100EA9EFAEB9FFBEC9400FCC3B3E833F8E58233F582E58333F583C3E933F9EA33FA4A
:20168100EB33FBEC33FC80C4B3E4F938FAE43582FBE43583FCD082500405827C80120C7B1F
:0316A100020F71C4
:0D005100758176121716E582600302004EDD
:1C16A40020F71430F6148883A88220F507E6A88375830022E280F7E49322E02255
:1316C000FCABF0AA83A982749EC2D1F582120C7B020F5909
:2016D3006040F82582500274FFF582E824F8501ECCCBCAF9E4CC24F85014CBCAF9E4CB241F
:2016F300F8500BCAF9E4CA24F8500379002224086010F8C3EC13FCEB13FBEA13FAE913F9D2
:03171300D8F122E8
:0417160075820022B6
:20171A007F9E120D3630D103020F7AC3EF9582500974FFF5F0F583F5822279001216D38926
:07173A00828A838BF0EC2290
:00000001FF
